:020000040800F2
:10000000000002209D240B0821250B081D770608FF
:1000100021250B0821250B0821250B0800000000D5
:1000200000000000000000000000000021250B0877
:1000300021250B080000000021250B08454205087A
:1000400021250B0821250B0821250B0821250B084C
:1000500021250B0821250B08390705083D07050850
:100060004107050845070508490705088D470408A5
:10007000A1470408B5470408C9470408DD47040838
:10008000F14704080548040821250B0821250B0821
:1000900021250B0821250B0821250B084D070508F4
:1000A00021250B0821250B0821250B08DD5104080B
:1000B000F15104080552040819520408553A04087D
:1000C000493A0408853A0408793A040821250B08BE
:1000D00021250B083D5C0408495C0408555C0408B4
:1000E0005107050821250B0800000000555204089F
:1000F000A5520408CD5204084152040819480408C6
:1001000021250B08558E04082D52040821250B08C3
:10011000615C040821250B0821250B0881A0040837
:100120002D48040841480408554804086948040853
:100130007D48040821250B0821250B0821250B08E3
:1001400000000000000000000000000000000000AF
:1001500091480408A5480408B94804086D5C0408DF
:10016000B93A0408AD3A040821250B0821250B08EB
:1001700021250B0821250B0821250B080000000074
:1001800021250B0821250B0821250B0821250B080B
:1001900021250B0821250B0821250B0821250B08FB
:1001A00021250B0821250B0821250B0821250B08EB
:1001B00021250B0821250B0821250B0821250B08DB
:1001C00021250B0821250B0821250B0821250B08CB
:1001D00021250B08698F040821250B0821250B0810
:1001E00021250B0821250B0821250B0821250B08AB
:1001F00021250B0821250B0821250B0821250B089B
:1002000021250B0821250B0821250B0821250B088A
:10021000695204087D5204089152040821250B08F4
:1002200021250B0821250B0821250B0800000000C3
:10023000598E040821250B080000000021250B0819
:1002400021250B0821250B0821250B0821250B084A
:1002500021250B0821250B0821250B0821250B083A
:1002600021250B0821250B0821250B0821250B082A
:1002700021250B0821250B0821250B080000000073
:1002800021250B080000000021250B0800000000BC
:080290000000000021250B080D
:0802980098140B0001000000A6
:1002A000586101240201000005003F00786101242B
:1002B0000207000005003F009861012402020001CE
:1002C00005035B00B86101240207000206033D003C
:1002D000D8610124010C000000017600F8610124BE
:1002E000011000000001760018620124010D0100D8
:1002F000000177003862012401120000000176003D
:10030000586201240114000000001E0078620124DC
:10031000011A000000000D00986201240115000080
:1003200000000C00B86201240116000000000C005F
:10033000D8620124011B000000000E00F8620124B5
:10034000011C000000001E001863012401170000BA
:1003500000000C00386301240118000000000E00AA
:10036000586301240119000000000C007863012487
:10037000021D00000002520098630124011E0000CB
:1003800000000C00B8630124011F000000000C00F5
:10039000D86301240128010000011800F86301243A
:1003A0000120000000014800186401240121000020
:1003B00000014900386401240122000000014A00C4
:1003C000586401240123000000014B0078640124DB
:1003D0000124000000014C00986401240125000064
:1003E00000014D00B86401240126000000014E0008
:1003F000D86401240127000000014F00F8640124A3
:10040000012B00000000290018650124012C0100C7
:100410000000290038650124012D01000000700052
:1004200058650124012E0100000052007865012466
:10043000012F01000001280098650124013001000E
:1004400000012800B86501240229050000012C00E4
:10045000D86501240133000000003C00F865012448
:0804600001360000000020003D
:020000040804EE
:10000000836B5A6D12F0500F5A6D1AD1196842F471
:1000100000725A650A6812F0080FCA6816D012F406
:10002000406F15D1CA68920412D45A6D22F48072BE
:100030005A655A6DD1040BD45A6D42F001025A65CB
:100040007047D20604D4DB6CDB6C18479007ECD009
:10005000704700BF704700BF836B5A6D42F040028B
:100060005A659A6D42F004029A6570473649024615
:1000700003688B4233D01831591AB1FA81F149091A
:1000800069BB324883423ED0183083423ED018309C
:10009000834234D0183083423BD0183083423ED064
:1000A000183083422AD000F55670834235D0284953
:1000B0008B4231D018318B4234D018318B4234D03E
:1000C00018318B4234D018318B4234D018318B42E6
:1000D00034D018318B4234D023F0FF0011E0DBB272
:1000E0001C491D48103BA1FB031310B41B091B4CFA
:1000F000E15C5DF8044BC2E916017047162118480F
:10010000D1659065704710211348F9E71621124810
:10011000F6E706211248F3E706211248F0E710211E
:100120000F48EDE710210F48EAE716210D48E7E7F1
:1001300000210D48E4E706210B48E1E710210A48B9
:10014000DEE716210848DBE71000024040000240CD
:1001500028040240ABAAAAAA0000024018AB0B0870
:1001600004000240000402400404024002685549B1
:1001700038B5554B554D564CAA4218BF9A420CBF44
:10018000012300238A4208BF43F001033031A24219
:1001900008BF43F0010330348A4208BF43F0010333
:1001A0003031A24208BF43F0010330348A4208BF15
:1001B00043F0010301F55C71A24208BF43F0010363
:1001C00004F55C748A4208BF43F001033031A24257
:1001D00008BF43F0010330348A4208BF43F00103F3
:1001E0003031A24208BF43F0010330348A4208BFD5
:1001F00043F001033031A24208BF43F001038A42B9
:1002000008BF43F0010313B9324B9A4208D10423CB
:1002100080F83530136823F001031360002038BDE7
:100220002D4B2E4D1168AA4218BF9A422C4C21F03A
:100230000E0105F13C050CBF012300231160A24211
:1002400008BF43F0010311682834AA4208BF43F0F5
:10025000010321F00101A24208BF43F0010314345D
:100260001160A24208BF43F001031E498A4208BF41
:1002700043F0010313B91C4B9A4217D10123856D3A
:10028000D0E91714226801F01F0122F480728B401C
:1002900022606B60C36ED0E91921516033B11A68D6
:1002A000D0E91C1422F480721A604C6000210122F3
:1002B000036D80F8341080F83520002BAED09847BD
:1002C000ACE700BF4000024010000240280002409E
:1002D00058000240B80402401C5402580854025806
:1002E000305402588054025894540258002280F826
:1002F000422090F84130292B04D090F841302A2B2D
:1003000018D070474FF0280C2123016880F841C0B5
:10031000036390F8413003EA0C0363450B6814BF94
:100320006FF0F20C6FF0420C03EA0C030B6080F8E4
:10033000402070474FF0280C2223016880F841C00C
:10034000036390F8413003EA0C0363450B6814BF64
:100350006FF0F40C6FF0440C03EA0C030B6080F8B0
:10036000402070470023202210B4174C4363C4621E
:10037000036380F8412080F842304B07026811D5B2
:10038000526A436A1A70436A028D013343624AB16A
:10039000438D013A013B02859BB24385436C43F098
:1003A000040343640368102490F84120002190F86E
:1003B00041201A6822F0FE021A60DC615DF8044BED
:1003C00080F84010704700BF0000FFFF70B50023A9
:1003D00090F84120424D044680F84230283AC562E8
:1003E0004385022A406C236840EA0100606439D8E2
:1003F00094F84110282094F8412001F0280102F0DF
:100400002802282914BFF6214621282A1A680CBF81
:10041000C9436FF0F6010A4032491A60002284F89D
:10042000410022631A68616312F4804231D01A6875
:10043000A06B22F480421A6098B100222A4B036517
:1004400084F8402090F83520022A3CD08022426572
:10045000BDE87040184794F84130602B3AD084F8DA
:10046000401070BD94F8412094F841201A6822F0A1
:10047000FE021A6094F84120602A02D0202284F8FB
:1004800041200022114622631A68616312F48042FF
:10049000CDD1196811F40041DDD01968E06B21F469
:1004A000004119600028DCD00F4B036584F8402020
:1004B00090F83520022AC9D1FFF758FE0028D0D085
:1004C000E06B036DC4E7FFF751FE0028C9D0A06BB5
:1004D000036DBDE7202384F8401084F8413070BDDF
:1004E0000000FFFF65050408F107040803689A6926
:1004F000196810B4D40528D50C0606D4416C11F047
:100500000B0F1FD15DF8044B7047416C4FF48074A2
:1005100041F0010141645105DC6120D5416C4FF48B
:100520008064920541F008014164DC61E6D5426CCB
:100530004FF4007142F002024264D961416C11F043
:100540000B0FDFD05DF8044B40E7540502D50906D8
:10055000E4D4D3E79405D1D50906E8D4CEE79205D3
:10056000E5D4CBE72DE9F84390F84030C76A012B7A
:1005700000F0D780012304460D46164680F840302F
:10058000880601D591065FD4EA0621D5F3061FD56A
:10059000638D9BB2002B40F0AA8094F84130B7F1F4
:1005A000007FDBB202D1282B00F0198194F8413092
:1005B00017F5803F2268DBB202D0292B00F0D380F0
:1005C0001023D3610023184684F84030BDE8F88337
:1005D0006A071BD4280702D5310700F19880AA07C3
:1005E000F0D5B307EED5638D9BB2002B00F0A4804D
:1005F000616A236811F8010B228D9862638D013ABC
:100600006162013B22859BB26385DBE77307E1D51D
:10061000638D9BB26BB12268636A526A1A70638DF4
:10062000616A228D013B0131013A9BB261622285F0
:100630006385638D17F5803F9BB2C3D0002BC1D17A
:100640002046FFF753FEBDE723682022664819685D
:10065000DA6194F8412094F841201A6822F0FE02F1
:100660001A605A6842F400425A605A6802405A605E
:100670009A69920701D500229A629A69D00703D439
:100680009A6942F001029A614A044DD5A26B1AB1EF
:1006900011684A6892B2628569074BD55A6A25F09B
:1006A0000409636A1A70636A01336362238D002B45
:1006B00052D1638D9BB21BB1636C43F0040363643E
:1006C0000023236384F84230D4F844806363B8F194
:1006D000000F58D1E36ADFF814914B4531D194F8FB
:1006E0004130202384F8408084F841304CE723686F
:1006F0001022DA61636C43F00403636437F08073A3
:100700007FF460AF616C2046FFF760FE5AE794F813
:100710004130226803F02803282B42D00823D361FC
:1007200050E70220BDE8F8830804B5D5E26B002A43
:10073000AED1B1E7A946BCE737F080737FF442AF92
:100740007EE72046FFF7D2FD2023C4F82C9084F8E2
:10075000408084F8413017E7013B2385638D013BDE
:100760009BB26385A5E71023D3619369980701D5F0
:10077000002393629369D9073FF562AF936943F011
:10078000010393615CE7616C2046FFF71FFE94F85C
:100790004130282B7FF4F8AE49462046FFF7E2FDB2
:1007A000F2E6E1689369022990699368D56811D1EE
:1007B000C3F3C21383EA104313F006030AD1A16CFA
:1007C0000131A164A16C02297FF4FCAE0821A3646D
:1007D000D161F7E6136823F0B8031360F2E6294607
:1007E0002046FFF7BFFDEDE600E800FE0000FFFF3A
:1007F000836B0022D3E90E0102650A6593F841205C
:10080000602A02D1202283F841207047026870B428
:10081000D4072DD597490B69896A03F03803102B4B
:1008200000F0F180182B00F0E9804368B3F5803FB9
:1008300000F05581002B00F05B81B3F5A02F8D4BAC
:10084000196800F02C8221F480311960196821F4B4
:1008500080211960884B41F2883C864C1D6804E079
:100860001968491B614500F2408121688E03F7D564
:1008700091072DD57F490B69896A13F0380300F081
:10088000A680182B00F0A080C3687A4C002B00F0E3
:100890006381216821F019011943774B21601D689C
:1008A00004E01968491B022900F21F8121684907E9
:1008B000F7D5724B01691D6841F20303B3EB154F85
:1008C000636880F0958023F0FE4343EA0163636030
:1008D000D5064CD4150713D54369664C002B00F0A0
:1008E0009E80616F644B41F0010161671D6804E007
:1008F0001968491B022900F2F880616F8907F7D552
:10090000940613D583695B4C002B00F007812168A6
:10091000594B41F4805121601D6804E01968491B5E
:10092000022900F2E28021688904F7D5540700F11A
:10093000A780426AC2B14F490B6903F03803182BF4
:1009400000F07F81022A0A684B4B22F080720A6015
:1009500000F01881186804E01A68121A022A00F2DE
:10096000C4800A689201F7D4002070BC70474149E6
:100970000B69896A03F03803082B63D0182B5DD00C
:10098000C3693C4C002B00F0D88021683A4B41F001
:10099000800121601D6804E01968491B022900F2EA
:1009A000A4802168C905F7D5344B056A196841F25E
:1009B0000303B3EB114FC0F09081636823F0F84359
:1009C00043EA8563636085E78D077FF45DAF294B5C
:1009D0001B685C0701D5C368F3B1284C41F20303DF
:1009E00001692468B3EB144F224C6368FFF46BAFCA
:1009F00023F47C3343EA0133636069E701F00301C8
:100A000002297FF412AF1B4B1B689B037FF530AFAD
:100A10004368002B7FF42CAF012070BC7047616FDE
:100A2000154B21F0010161671D6803E01968491B3E
:100A300002295AD8616F8E07F8D461E701F00301EB
:100A400001299DD10B4B1B68DC0502D5C369802BA6
:100A5000E2D10A4941F20303046A0968B3EB114F7A
:100A60000449C0F088804B6823F0F84343EA84636C
:100A70004B602FE700440258A02600240010005CC1
:100A80009C499D4B0A6842F480720A601C6803E02E
:100A90001A68121B642A28D80A68D505F8D5826816
:100AA000012A00F02181002A00F00181052A934AE1
:100AB000116F00F0278121F001011167116F21F002
:100AC000040111671D6841F288348C4903E01A68FB
:100AD000521BA24209D80A6F9207F8D529E7874925
:100AE0000B6843F480330B60B4E6032070BC70479E
:100AF000824C41F28835804B216821F4803121609D
:100B0000216821F4802121601E6803E01968891B97
:100B1000A942EAD821688903F8D4A9E62168764B6E
:100B200021F4805121601D6803E01968491B0229E6
:100B3000DBD821688E04F8D4F8E621686E4B21F0EA
:100B4000800121601D6803E01968491B0229CCD887
:100B50002168CE05F8D4BDE62168674B21F001017C
:100B600021601D6803E01968491B0229BDD821686E
:100B70004E07F8D4ACE6CB6823F07C5343EA046319
:100B8000CB60A7E61C6803E01A68121B022AACD8E7
:100B90000A689501F8D48C6A594A2240846A224333
:100BA000C46A42EA04128A62D0E90D24013A013C87
:100BB0005202240492B204F4FE042243046B013C6A
:100BC000C4F308042243C46B013C240604F0FE4431
:100BD00022430A63CA6A22F00102CA624A6B846C29
:100BE0006FF3CF0242EAC4024A63CA6A046C22F07D
:100BF0000C022243414CCA62CA6A406C22F00202D3
:100C00000243CA62CA6A42F48032CA62CA6A42F4C1
:100C10000032CA62CA6A42F48022CA62CA6A42F0D8
:100C20000102CA620A6842F080720A60196804E030
:100C30001A68521A022A3FF658AF22689001F7D577
:100C400092E6012A8C6A0B6B3FF4E6AE04F00302D5
:100C5000816A8A427FF4E0AEC4F30514C26A94420A
:100C60007FF4DAAE026BC3F30801013A91427FF4DC
:100C7000D3AE426BC3F34621013A91427FF4CCAE2E
:100C8000826BC3F30641013A91427FF4C5AEC26B59
:100C9000C3F30663013A981A18BF0120BDE641F478
:100CA00080211960196841F480311960D2E5134937
:100CB00041F288350A6F22F001020A670A6F22F0BA
:100CC00004020A671C6804E01A68121BAA423FF675
:100CD0000CAF0A6F9607F7D42BE6E36823F07C533A
:100CE00043EA0563E360F5E504490A6F42F0010257
:100CF0000A67E7E600480258A0260024004402588C
:100D00000CFCFFFF41F004011167116F41F001017C
:100D10001167D7E6334B30B4996A9C6ADD6A14F4E4
:100D20007C7F5A6BC4F3051036D0C2F3CC0205F0B9
:100D3000010501F0030107EE900A05FB02F201290B
:100D4000B8EEE77A06EE902AFAEEE96A02D00229B6
:100D500042D019B3DFED247A87EE876A1B6BC3F3A9
:100D6000080307EE903AF7EE005AF8EEE77A77EECE
:100D7000A67A77EEA57A67EE867A1A4B1B6BC3F3D9
:100D80004623013307EE103AF8EEC76A87EEA67ADB
:100D9000FCEEC77A17EE900A30BC70471A689206CC
:100DA0001DD51968F7EE005A104A1B6BC1F3C1013B
:100DB000C3F30803CA4007EE903A06EE102AF8EE95
:100DC000E77AB8EEC66A77EEA66AC6EE077A36EE1E
:100DD000A57A67EE877AD0E7DFED057ABCE7DFED2D
:100DE000057AB9E7004402580024744A0090D00301
:100DF0000024F44A0024744C474A70B4946A956AFB
:100E0000D66A15F47C3FC5F30533D16B5BD0C1F3D3
:100E1000CC01C6F3001604F0030407EE903A06FB7B
:100E200001F1012CB8EEE77A06EE901AFAEEE96AC3
:100E300003D0022C6AD0002C4AD0DFED387A87EE3E
:100E4000876A936BC3F3080307EE903AF7EE005AF4
:100E5000F8EEE77A77EEA67A77EEA57A67EE867AED
:100E60002D4AB7EE006A936BC3F3462307EE103AA0
:100E7000B8EEC77A70BC37EE067AC7EE876AFCEE2A
:100E8000E66AC0ED006A936BC3F3064307EE103ABF
:100E9000B8EEC77A37EE067AC7EE876AFCEEE66AE6
:100EA000C0ED016A936BC3F3066306EE903AF8EE69
:100EB000E66A76EE866A87EEA67AFCEEC77A17EEC9
:100EC000903A8360704770BCC0E90033836070471C
:100ED00013689B061DD51468F7EE005A936B1049F2
:100EE000C4F3C102C3F30803D14007EE903A06EE03
:100EF000101AF8EEE77AB8EEC66A77EEA66AC6EE82
:100F0000077A36EEA57A67EE877AA9E7DFED057AEC
:100F100095E7DFED057A92E7004402580024744A11
:100F20000090D0030024F44A0024744C474A70B463
:100F3000946A956AD66A15F07C7FC5F30553516CA7
:100F40005BD0C1F3CC01C6F3002604F0030407EE26
:100F5000903A06FB01F1012CB8EEE77A06EE901A02
:100F6000FAEEE96A03D0022C6AD0002C4AD0DFEDF9
:100F7000387A87EE876A136CC3F3080307EE903A5A
:100F8000F7EE005AF8EEE77A77EEA67A77EEA57AD2
:100F900067EE867A2D4AB7EE006A136CC3F34623D8
:100FA00007EE103AB8EEC77A70BC37EE067AC7EE95
:100FB000876AFCEEE66AC0ED006A136CC3F3064371
:100FC00007EE103AB8EEC77A37EE067AC7EE876AB0
:100FD000FCEEE66AC0ED016A136CC3F3066306EE2D
:100FE000903AF8EEE66A76EE866A87EEA67AFCEE2E
:100FF000C77A17EE903A8360704770BCC0E900333F
:101000008360704713689B061DD51468F7EE005A7D
:10101000136C1049C4F3C102C3F30803D14007EEB7
:10102000903A06EE101AF8EEE77AB8EEC66A77EE56
:10103000A66AC6EE077A36EEA57A67EE877AA9E742
:10104000DFED057A95E7DFED057A92E70044025877
:101050000024744A0090D0030024F44A0024744C05
:10106000836ADA0710B406D50168C46A4A6822F4B4
:10107000003222434A609C0706D50168046B4A6827
:1010800022F4803222434A60590706D50168446B36
:101090004A6822F4802222434A601A0706D5016872
:1010A000846B4A6822F4004222434A60DC0606D57B
:1010B0000168C46B8A6822F4805222438A609906D0
:1010C00006D50168046C8A6822F4005222438A60C3
:1010D0005A060AD50168446C4A68B4F5801F22F4A8
:1010E000801242EA04024A600BD01B0606D5026851
:1010F000C16C536823F400230B4353605DF8044B29
:1011000070474A68846C22F4C00222434A60ECE7CC
:101110000022836BA3F85E20A3F85620704700BF1F
:10112000124B41F2883C124A01461B68A2FB032382
:101130005B0A0CFB03F33BB14A6B12F0450F01D085
:10114000920404D5013BF7D14FF0004070474B6B40
:101150005B0707D4486B10F0010014BF0123054B57
:101160008B637047042318468B637047000000248C
:10117000D34D6210C5002000036941681F2B70B475
:1011800031D9A3F1200520224C68AA40224228D060
:101190008269107C022836D054681F2BD2681B4805
:1011A000566822691A4DC2F3032200EB820292684C
:1011B00015F802C0256856F80C2022F0010246F806
:1011C0000C20627900EB4200EA68008D00F4F050D8
:1011D00022EA0002EA6010D9A3F120022023934002
:1011E000CB6070BC704720220C689A402242F8D035
:1011F0008269107C0228CFD105E0202202FA03F395
:1012000070BC8B60704700201074C5E718AB0B08EA
:10121000F4AC0B08436BDA692DE9F04197060446FC
:1012200013D5586AE36AC0B2002B79D0216B984776
:10123000636B1A6822F480721A609A6822F00102C5
:101240009A609A6942F008029A61DA69D60701D574
:1012500001221A62DA69950701D502221A62DA6957
:10126000500701D504221A62DA69110701D5082254
:101270001A62DA69120612D5D4F8B420212A0ED0E7
:10128000D4E909128A4257D0A169895C0132C9B2F6
:1012900099622169B2FBF1F001FB1022A262DA69C6
:1012A000570601D4BDE8F081DA6940F60F0C1D68DD
:1012B00004F1340012EA0C0F996823D0724E0E40EC
:1012C00042D1724F3D4240F0CD80D60202D54F024E
:1012D00000F1D080160606D501F4000105F0800665
:1012E0000E4340F0BA805106DCD56A06DAD51A689A
:1012F0002020002122F040021A60C4F8B400C4F893
:10130000A410CFE79606E0D505F0200601F080573F
:101310003E43DAD0D4F8A030002B40F08E80C1E7F5
:10132000E3696269D054E369E2680133B3FBF2F127
:1013300002FB1133E3617BE70022A4F88A201A68DC
:1013400022F080021A60AAE7D70709D5EF0507D572
:1013500001271F62D4F8BC7047F00107C4F8BC70C5
:1013600097076DD4570709D5CF0707D504271F6204
:10137000D4F8BC7047F00207C4F8BC7017070BD54F
:1013800005F02007374307D008261E62D4F8BC605A
:1013900046F00806C4F8BC6017050AD56E0108D5EA
:1013A0004FF400661E62D4F8BC6046F02006C4F814
:1013B000BC60D4F8BC60002E3FF474AF92060AD52E
:1013C00005F0200501F080510D4304D0D4F8A02091
:1013D0000AB19047636BD4F8BC109A6801F02801F9
:1013E00002F040020A434CD019682020284A21F418
:1013F0009071196099680A4000219A60C4F8B80099
:101400009A68C4F8A01057067FF54CAF9A68D4F8D4
:10141000AC0022F040029A6000283FF443AF90F8FD
:1014200035201C4B022A036528D1FEF79FFE0028B9
:101430003FF438AFD4F8AC00036DBDE8F041184775
:10144000CF079BD502271F62D4F8BC7047F0040772
:10145000C4F8BC70570791D588E7D4F8A430002BA6
:10146000EBD11FE7D70789D5EF053FF571AF970798
:1014700084D477E74FF480121A6213E78022426522
:10148000DBE7C4F8BC200DE70100001020010004D8
:10149000FEFFFFEF11110408D0E907239A423CBF79
:1014A000C1685218D01A7047D0E9092300699A42DE
:1014B00038BF12180138D31AC01A7047D0E9090290
:1014C000101AB0FA80F04009704700BF016A034665
:1014D00040694A1C405CD9688A4228BF00221A62CF
:1014E000704700BF436A826910B4D154436A416BAC
:1014F000046901330A68A34228BF00235DF8044B46
:1015000042F0800243620A60704700BF436BD869B3
:1015100010F0100002D0102201201A62704700BFA4
:101520002DE9F047046982B0C3681C4046D081466B
:1015300088464FF0004501F1500701F13806B4FA32
:1015400084F325FA03F21B3BD2431440C9F8102060
:10155000B8F1000F5FD0042B2ED8DFE803F052481B
:101560003D320300D8F81030D9F82CA033B19B6875
:1015700023B11FFA8AF108F108009847D8F82830FB
:1015800033B19B6823B11FFA8AF108F12000984714
:10159000D8F8403033B19B6823B11FFA8AF108F1C3
:1015A00038009847D8F8583033B19B6823B11FFAF8
:1015B0008AF108F150009847002CC0D102B0BDE874
:1015C000F087D8F8103008F10800D9F834105B68BB
:1015D0009847002CB3D1F1E7D8F8283008F1200063
:1015E000D9F838105B689847002CA8D1E6E7D8F8FE
:1015F00040303046D9F83C105B689847002C9ED1AB
:10160000DCE7D8F858303846D9F840105B6898477E
:10161000002C94D1D2E7042B07D8DFE803F019039C
:10162000140F0A00D9F83C300193019B002C86D19D
:10163000C4E7D9F82C300193019BF7E7D9F834308F
:101640000193019BF2E7D9F838300193019BEDE754
:10165000D9F840300193019BE8E700BF70B5124D07
:10166000124A2B68A2FB03239B09013BB3F1807F45
:1016700001D3012070BD4FF0E0220D4900240F2856
:1016800053614FF0F003064681F823304FF0070313
:1016900094611361EDD801464FF0FF306BF068F9AB
:1016A00020466E6070BD00BF00000024D34D621064
:1016B00000ED00E0034A0130116813685B1A8342B1
:1016C000FBD37047A02600240C4A136903F03803AB
:1016D000102B0DD0182B09D063B913689B060BD5BE
:1016E00013680748C3F3C103D8407047FFF712BB24
:1016F0000448704704487047014870470044025846
:101700000090D00300127A0000093D00194A1369C5
:1017100003F03803102B10B526D0182B09D02BBBA3
:1017200013689B0624D513681348C3F3C103D8403C
:1017300001E0FFF7EFFA0F49104A8B69104CC3F331
:101740000323134493F8303003F01F0320FA03F30C
:101750002360896901F00F010A4492F8300000F01B
:101760001F0023FA00F010BD0648E4E70648E2E750
:101770000148E0E7004402580090D00318AB0B0882
:101780000000002400127A0000093D00D0E9041294
:1017900083680B43C16970B513430446056886B07E
:1017A000626E0B4328681343A44A666A02401343DF
:1017B000E2682B606B6823F440531343A2696B60AB
:1017C0009F4B9D4200F02D82236AA8681A439D4BCF
:1017D00003401A43AA60EB6A23F00F033343EB6222
:1017E000994B9D4228D0994B9D421AD0984B9D42CF
:1017F00017D0984B9D4214D0974B9D4211D0974BD8
:101800009D4219D0964B9D420BD0964B9D4208D0DD
:10181000012000234FF00112C4E91A23236706B008
:1018200070BD914B5B6D03F00703052BF0D8DFE82B
:1018300003F0C65F7AAE8D9D8B4B5B6D03F0380372
:10184000282BE5D801A252F823F000BFED1A0408B6
:1018500011180408111804081118040811180408B4
:10186000111804081118040811180408F1180408C4
:101870001118040811180408111804081118040894
:10188000111804081118040811180408271904086D
:101890001118040811180408111804081118040874
:1018A0001118040811180408111804088F190408E5
:1018B0001118040811180408111804081118040854
:1018C0001118040811180408111804084D19040807
:1018D0001118040811180408111804081118040834
:1018E0001118040811180408111804086D190408C7
:1018F000B1F5004F00F0468103A8FFF77DFA049B85
:10190000002E40F08280626803EB5203B3FBF2F3D7
:101910009BB2A3F110014FF6EF7291423FF678AF00
:10192000EB60002075E7B1F5004F00F0FD806846E0
:10193000FFF7FCFA019B002EE5D0013E0A2EE2D80B
:101940004A4A52F82620B3FBF2F3DCE7B1F5004F28
:1019500000F03981002E56D0013E0A2E53D8444A59
:10196000444B52F82620B3FBF2F3CCE7B1F5004F1D
:1019700000F01781002E43D0013E0A2E40D83E4A87
:101980004FF4004352F82620B3FBF2F3BBE7B1F566
:10199000004F00F02481344B1A6892063FD51A6834
:1019A000364BC2F3C102D340002EACD0013E0A2E0A
:1019B000A9D8334A52F82620B3FBF2F3A3E7B1F5D6
:1019C000004F67D0FFF7A2FE274A2E4BD269C2F321
:1019D00002121344626A93F8303003F01F03D840B8
:1019E0003AB1013A0A2A04D8274B53F82230B0FB07
:1019F000F3F0626800EB5203B3FBF2F39BB288E7AB
:101A00004FF400437FE71B4B7DE7013E0A2E3FF674
:101A10007AAF1E4A52F82620B3FBF2F373E7002E8A
:101A200000F0FD80013E0A2E00F2F980184A134BA7
:101A300052F82620B3FBF2F365E700BFF369FFCF4E
:101A4000000C0058FFF4FF1100100140004400405A
:101A500000480040004C004000500040001401408D
:101A600000780040007C00400044025858AB0B084E
:101A700058AB0B0800093D0058AB0B080090D00391
:101A800058AB0B0818AB0B0858AB0B0858AB0B083E
:101A900058AB0B08FFF73AFEB34AB44BD269C2F316
:101AA00002121344626A93F8303003F01F03D840E7
:101AB0003AB1013A0A2A04D8AD4B53F82230B0FBB0
:101AC000F3F06268530803EB4003B3FBF2F39BB2FD
:101AD000A3F110014FF6EF7291423FF699AE23F059
:101AE0000F02C3F342031343EB601AE7B1F5004F53
:101AF0002FD0FFF70BFE9C4A9C4BD269C2F3022207
:101B00001344626A93F8303003F01F03D840002A70
:101B10003FF46FAF013A0A2A3FF66BAF954B53F88B
:101B20002230B0FBF3F064E76846FFF7FFF9019954
:101B30003EB1013E0A2E04D88F4B53F82630B1FB3C
:101B4000F3F16268530803EB4103B3FBF2F39BB27A
:101B5000BEE7FFF7DBFD844A844BD269C2F3022261
:101B60001344626A93F8303003F01F03D840002A10
:101B7000A7D0013A0A2AA4D8804B53F82230B0FBF0
:101B8000F3F09EE703A8FFF737F90499002ED8D0A9
:101B9000013E0A2ED5D87A4B53F82630B1FBF3F12B
:101BA000CFE7002E36D0013E0A2E33D8754B53F8BE
:101BB0002630B1FBF3F35B00626803EB5203B3FB27
:101BC000F2F39BB284E746B3013E0A2E25D86E4A53
:101BD0006E4B52F82620B3FBF2F35B00ECE7624B4E
:101BE0001A68910640F1C2811B68694AC3F3C103B8
:101BF000DA403EB1013E0A2E04D8664B53F8263037
:101C0000B2FBF3F261684B0803EB4203B3FBF1F361
:101C10009BB25DE74FF48033CEE75F4BCCE75C4B84
:101C200071E6A9685D4B0B4013434F4AAB60EB6A0A
:101C300023F00F033343EB62936D03F00703052B8F
:101C40003FF6E6ADDFE803F0D0C1B2776803002EBF
:101C500000F07881013E0A2E00F27481504A4FF460
:101C60000040402352F82620B0FBF2F000283FF459
:101C700058AE656805EB450282423FF6C9ADB0EB50
:101C8000053F3FF6C5AD202B00F27E81023B1E2BA7
:101C90003FF6BEAD01A252F823F000BFF11E0408CA
:101CA00011180408CB1E04081118040811180408A0
:101CB00011180408A51E04081118040811180408B6
:101CC0001118040811180408111804081118040840
:101CD000111804086B1E04081118040811180408D0
:101CE0001118040811180408111804081118040820
:101CF0001118040811180408111804081118040810
:101D000011180408111804081118040811180408FF
:101D1000111804081B1E0408002E00F01781013E54
:101D20000A2E00F213811F4A2023184852F8262059
:101D3000B0FBF2F09AE70C4B1A68950640F1098166
:101D40001B681348C3F3C103D840002E00F0F8808D
:101D5000013E0A2E00F2F480134A102352F8262086
:101D6000B0FBF2F082E700BF0044025818AB0B084A
:101D700058AB0B0858AB0B0858AB0B0858AB0B080B
:101D800058AB0B0858AB0B0858AB0B0800093D00CB
:101D90000090D00358AB0B0800127A00FFF4FF113B
:101DA00058AB0B0858AB0B0858AB0B086846FFF74D
:101DB000BDF801983EB1013E0A2E04D8864B53F877
:101DC0002630B0FBF3F0082350E703A8FFF714F820
:101DD00004983EB1013E0A2E04D8804B53F82630B9
:101DE000B0FBF3F0042341E7FFF790FC7C4B7D4907
:101DF0001B6A626AC3F302130B4493F8303003F09A
:101E00001F03D8403AB1013A0A2A04D801EB8201F3
:101E10000B6CB0FBF3F0022328E7616A002900F0A5
:101E2000CE8001390A2900F2CF806F4B6F4803EB57
:101E3000C103D3E90023002170F016FB0346090219
:101E4000180241EA13616B0818182A464FF0000384
:101E500041F1000170F008FBA0F54072644B9A421A
:101E60003FF6D6AC634BD8605BE55D4A636A1168A8
:101E7000880640F19680126800215F48C2F3C102D3
:101E8000D0404BB1013B0A2B06D85C4A02EBC3039E
:101E9000D3E9002370F0E8FA0902030241EA106175
:101EA0006808D1E76846FFF741F8636A01980021A6
:101EB000002BF1D0013B0A2BEED8514A02EBC303B1
:101EC000D3E9002370F0D0FAE6E703A8FEF794FF09
:101ED000636A04980021002BDED0013B0A2BDBD87B
:101EE000484A02EBC303D3E9002370F0BDFAD3E7FD
:101EF000FFF70CFC3A4B3B4D00211B6A626AC3F3AF
:101F000002132B4493F8303003F01F03D84042B142
:101F1000013A0A2A05D805EBC205D5E91C2370F061
:101F2000A3FA62680902030241EA10615008181816
:101F30004FF0000341F1000170F096FA8CE72E4853
:101F4000102396E64FF40040402392E627482023D2
:101F50008FE6002EF3D0013E0A2EF0D82A4A102335
:101F6000254852F82620B0FBF2F07FE656B1013E3C
:101F70000A2E07D8254A204B52F82620B3FBF2F34D
:101F80005B0019E6224B17E6616AA9B101390A29FB
:101F90001DD8204B4FF4004003EBC103D3E90023CD
:101FA00049E773B1013B0A2B0BD81B4A124802EBDD
:101FB000C303D3E900233EE74FF4000043E717488B
:101FC00041E7174803213EE7144800213BE74FF45F
:101FD0000000002137E700BF58AB0B0858AB0B08D7
:101FE0000044025818AB0B0888AB0B0800093D00F1
:101FF000FFFC0F00000C00580090D00388AB0B08CA
:1020000088AB0B0888AB0B0858AB0B0858AB0B0818
:102010000020A10788AB0B0888AB0B080000093D26
:10202000000090D0344A136830B423F08063334CFE
:102030001360256803E023685B1B022B54D81368E8
:102040001B01F8D4936A056823F47C3343EA053313
:1020500093628368C568013B013D5B022D049BB21E
:1020600005F4FE052B434568013DC5F308052B43E8
:102070000569013D2D0605F0FE452B439363D36AA8
:10208000456923F0C0032B43D362D36A856923F0EB
:1020900020032B43D362D36A23F01003D362D36BA4
:1020A000C0696FF3CF0343EAC003D363D36A43F03D
:1020B0001003D362D36AD1B101290CBF43F480135A
:1020C00043F40013D3620C4A136843F08063136037
:1020D000216803E023685B1A022B05D813681B01F3
:1020E000F8D5002030BC7047032030BC704743F463
:1020F0000023D362E7E700BF00440258A026002473
:10210000344A136830B423F08053334C136025688D
:1021100003E023685B1B022B54D813689B00F8D4A0
:10212000936A056823F07C7343EA055393628368DE
:10213000C568013B013D5B022D049BB205F4FE0521
:102140002B434568013DC5F308052B430569013D57
:102150002D0605F0FE452B431364D36A456923F42D
:1021600040632B43D362D36A856923F400732B4306
:10217000D362D36A23F48073D362536CC0696FF364
:10218000CF0343EAC0035364D36A43F48073D3623A
:10219000D36AD1B101290CBF43F4000343F080732B
:1021A000D3620C4A136843F080531360216803E044
:1021B00023685B1A022B05D813689B00F8D5002012
:1021C00030BC7047032030BC704743F48003D362B7
:1021D000E7E700BF00440258A0260024F0B5344AC7
:1021E000B0F1804F334CA0EB02020368A0EB040E69
:1021F0004F69B2FA82F28E68BEFA8EFE0D684FEA1F
:1022000052124FEA5E1E20D0FAB9DFF8B4C0604522
:1022100032D00CF5806C60452ED00CF5806C60459A
:1022200013D0BEF1000F10D1234C244A904218BFA6
:10223000A04225D002F58062904221D023F0800395
:102240003B430360C662856213E04C6823F0700371
:102250002343CC6823F44073234323F080033B43A0
:102260000360C662856212B9BEF1000F12D00B691D
:10227000036301234361F0BD23F070034A681343F5
:10228000CA6823F44073134323F080033B43036085
:10229000C6628562084A094B984218BF9042E6D050
:1022A00003F580639842E2D001234361F0BD00BF93
:1022B0000000014000040140004001400044014092
:1022C000000400404B4B10B41B684B4CA4FB034371
:1022D0005B0A03FB02F25AB18446531E4748DCF8FE
:1022E0003420013B024201D0920406D55C1CF6D199
:1022F0004FF000405DF8044B7047DCF834305C0769
:1023000041D4DCF83430D80709D43D4BCCF8383010
:10231000DCF81030DBB2994205D00120EAE7012356
:10232000CCF83830F9E7DCF814303648184000288B
:10233000E0D0002B2CDB5A002DD49C002DD4D900EA
:102340002DD41A012ED45C012FD4D90130D41A0215
:1023500031D45C0232D499023CD4DA0237D45C0323
:1023600032D499032DD4DA0340D41C043BD459044D
:1023700036D49A0431D413F0080F0CBF4FF48030D8
:102380004FF40000B6E704231846CCF83830B1E724
:102390004FF00070AEE74020ACE78020AAE74FF492
:1023A0008070A7E74FF40070A4E74FF48060A1E7C6
:1023B0004FF400609EE74FF480509BE74FF40050CD
:1023C00098E74FF4802095E74FF4003092E74FF400
:1023D00000408FE74FF480408CE74FF4800089E79E
:1023E0004FF4001086E74FF4801083E74FF400208D
:1023F00080E700BF00000024D34D6210450020009C
:10240000C500200008E0FFFD0A4B013B0FD0026928
:10241000002AFADA0369074A43F001030361013A2B
:1024200005D0036913F00103F9D118467047032062
:10243000704700BF410D03002DE9F84F0668804644
:102440000C46C6F3100535BB634B9E4276D903F5A7
:1024500000339E4271D903F500339E4240F2AF80B3
:1024600003F500339E4240F2AC8003F500339E42F8
:1024700040F2A98003F500339E4240F2A68003F5A6
:1024800000339E4240F2A380B6F1016FC0F0A180FC
:10249000052011F085FF514F35463B7E012B00F0A2
:1024A000858006F178464FF001090023B6F5801FBC
:1024B00087F81890FB6135D302206AF0FDF90028F7
:1024C00072D1474A4FF00209D2F80C3143EA0903AE
:1024D000C2F80C31BFF36F8FBFF34F8F04F12002AE
:1024E00054F8043B944245F8043BF9D1BFF36F8F95
:1024F000BFF34F8F48466AF0DFF9B9F1010F384A50
:1025000058D0D2F80C3123F00203C2F80C3100236A
:102510003B7600284AD1D8F800302033C8F8003084
:10252000BDE8F88F48466AF0C7F900283CD12C4A2C
:10253000D36843F00203D360CCE70125274F3B7EED
:10254000012B0ED04FF0010A4FF0000B504687F8D8
:1025500018A0C7F81CB06AF0AFF9814628B187F817
:1025600018B04FF0FF30BDE8F88F5046DFF870A08C
:10257000DAF80C3023F4E663CAF80C30DAF80C30E1
:1025800043EA052343F0A403CAF80C306AF094F937
:10259000DAF80C20134B1340CAF80C3087F8189067
:1025A0000028DED135467CE700233B766FF0010042
:1025B000BDE8F88FD36823F00203D360A7E70225B4
:1025C000BCE70325BAE70425B8E70525B6E70625E5
:1025D000B4E70725B2E700BFFFFF0108A0260024EB
:1025E00000200052FBF8FFFF2DE9F04FF4279E4D2D
:1025F0008BB0044600FB07F705F10808EE194744C5
:10260000F08969F077FCB08969F074FCD6F8F8308D
:1026100008214FF44030012B3363B268D4BF00234C
:102620000123B26173620023C6E907014FF48061A0
:10263000336486F83430F1634FF48071B363B3626E
:102640000593B984032786F850304FF48053C6E9C8
:102650001173F36E002B00F0B0809368990003D5DE
:102660009168824B0B4093609368DB0014D49068B0
:102670007F492B6801409B0941F0805191607D4961
:10268000A1FB03139B090593059B2BB1059B013B04
:102690000593059B002BF9D19368DF001DD4F4232B
:1026A000012703FB0453D96E41F01001D966196F5D
:1026B00039431967936813F0040F4FF0F40303FBD9
:1026C00004530CD0DB6EF42303FB0453DA6E42F0A8
:1026D0001002DA660BB0BDE8F08F0027EAE7D96E8A
:1026E00011F01009EFD1D96E21F4817141F002018E
:1026F000D9669368DE070DD45F4B9A4200F0A28240
:1027000003F580739A4200F09D825C4B9B68DB0767
:1027100040F1AB825A4B5B491B68D368194043F2C6
:1027200008030B43D360936813F0040F936848D0F9
:10273000F42303FB04539B69F42202FB0452516A05
:10274000012900F05B821A6B22F00F021A63F42257
:1027500002FB0452D16E21F0030141F00101D16668
:10276000002FB7D192F8681006970129B2D0012145
:1027700082F868109968880700F18C809968C90709
:1027800040F18980996801F00D01012900F002846F
:10279000D36E43F01003D366136F43F00103136746
:1027A000F423002103FB0453DA6E83F8681042F02F
:1027B0001002DA660BB0BDE8F08F336786F8683038
:1027C0004BE71E07B4D4D1682F4B0B4043F00303F3
:1027D000D360136923F001031361F42303FB045353
:1027E000D96C136923F070430B431361224B9A4257
:1027F00000F0208203F580739A4200F01B82234B85
:102800009B6813F4403F14BF01230023002B00F00A
:10281000FD81FEF77BFFF42303FB0453DB69B3F573
:10282000003F00F08682B3F5403F00F05584B3F5D9
:10283000803F00F07E82124B41F203021968F423BC
:10284000B2EB114F03FB04539B69C0F09083104B14
:10285000984240F2CF83F42303FB04539B699A68A8
:1028600042F480729A6067E700000024C0FFFF5FB7
:10287000C0FFFF6F632D3E0500200240006002583C
:102880000010005C03C0F0FFFCBFFFFF00630258B4
:10289000002D31019A68F420B849B94A00FB045070
:1028A000C66E314041F00201C16699680A4042F0AB
:1028B00000429A609A68B349002AC0F281814FF0C1
:1028C000F40BB14BDFF8E0A20BFB04FBDFF8DCE21A
:1028D000DFF8E8C205EB0B00AC4EAD4A016951458B
:1028E00018BF99420BF1740AC1670CBF0123002382
:1028F000C244714508BF43F00103614508BF43F07E
:1029000001034FF4005CB14208BF43F001034FF4F0
:102910008066914208BF43F001031832914208BF1C
:1029200043F001031832914208BF43F0010302F55E
:102930005672914208BF43F001031832914208BF1A
:1029400043F001031832914208BF43F001031832EB
:10295000914208BF43F001031832914208BF43F08F
:102960000103C26E22F0030242F00102C266894AEC
:10297000914208BF43F001031832914208BF43F06F
:102980000103002280F86820C0F8A020C0E92122BD
:10299000C0E92A224269C0F880204FF40062C0E9F1
:1029A00023624FF480727C4EC0E925C24FF400329E
:1029B0004FF0030CC0F89C20C0F8A4C032681BB9CB
:1029C000764B994240F01286F42002234FF0000C1F
:1029D00000FB045080F8B1300B6880F8B0C023F0E1
:1029E00001030B6004E033689B1A052B00F2FC80A6
:1029F0000B68DB07F7D40B685046694A1A40694BED
:102A000013430B604B6923F007034B61FDF72EFB6B
:102A1000F42303FB0453D3F8D8203F2302F01F0212
:102A200093408360F423584903FB0453DA6F5E4BF1
:102A30009A4218BF8A420CBF0121002100F0C982CE
:102A40005A4B9A4200F0138118339A4200F04783A0
:102A500018339A4200F07B8318339A4200F0A38324
:102A600018339A4200F0018418339A4200F000842F
:102A700003F556739A4200F0008418339A4200F02E
:102A8000FA8318339A4200F08B8518339A4200F08B
:102A9000008618339A4200F0148618339A4200F0E8
:102AA000168618339A4200F00F8618339A4200F0C7
:102AB000FD863F4B9A4200F0EF8514339A4200F0B6
:102AC000EB8514339A4200F08D8714339A4200F05C
:102AD000898714339A4200F0838714339A4200F0B6
:102AE000818714339A4200F07D8714339A4200F0B4
:102AF00079870BF1100BF42200963E4602FB045935
:102B000008EB0B030022C9F864A04FF0010AC9F8D2
:102B1000B430284BC9F8D02003F1480B89F8B1A094
:102B200003E00C339B4500F008815A7D002AF8D061
:102B300093F90D20A242F4D100229F7D18690792DB
:102B40001D4A019702EB8602D2F8C81099F8682056
:102B5000012A3FF4BFADD9F8182089F868A097681A
:102B60007F0740F11A81D9F86C304FF0000243F032
:102B7000200389F86820C9F86C30ABE5FDEEFFFF53
:102B8000C0FFFE3F00F8C325100002407000024065
:102B90008800024088040240A0260024B8040240B5
:102BA0003F8010FE002D020028000240400002403D
:102BB00008540258C026002418AB0B0858000240E5
:102BC000069A01320692069A8A42FFF473AEF42303
:102BD000002103FB0453DA6E83F8681022F012021E
:102BE00042F01002DA6675E5F4232021032203FB8C
:102BF0000453C3F8D01083F8B1206BE5126B196B46
:102C0000013A21F00F010A431A63A0E5AE4A936D21
:102C100003F44033B3F5803F00F08680B3F5003F06
:102C200000F06082002B40F0DE8107A8FEF7E4F898
:102C3000079800E6A54B9B6813F4403F14BF01239F
:102C40000023E3E5A24B996803F580739B68D807DE
:102C50003FF560ADC9073FF55DAD9C498B6823F436
:102C60007C1343F440338B6054E59A49F6E74FF008
:102C70000209994B4FF0010E00214B440EFA09FE58
:102C8000DFF868924FEA830CF42000FB0450D0F880
:102C90008430C0F8E4E0802BC0E937C900F0FD8043
:102CA000D0F88030D8B2013B072BCCF80000C9F82F
:102CB00004E000F2F980894BDFF834C2624518BFA6
:102CC0009A420CF1280C0CBF01230023624508BF77
:102CD00043F001030CF1140C624508BF43F00103FB
:102CE0000CF1140C624508BF43F001030CF1140C05
:102CF000624508BF43F0010300F1FF3C13B900290E
:102D000000F06E847649014476488900F42301225C
:102D100003FB045302FA0CF2C3E93A10C3F8F020A3
:102D200000230B604260E4E607A8FEF7FFF809986D
:102D300081E51B0CB0FBF3F07DE5F423644A009EB3
:102D400003FB0453D3F8F8109B69934200F0A28070
:102D500002F58072934200F09D80DFF878C1DCF8C4
:102D600008709A6850073FF5B5ACF42000FB04509A
:102D700090F86820012A3FF4ADAC07F01F0740F23D
:102D800021224FF0010EFA4080F868E012EA0E02AC
:102D900040F0448180F868209CE4C0F31307C0F33E
:102DA000846E0297002F40F088800AFA0EFCD769E3
:102DB0004FF01F0847EA0C0702F1300CD7618F096A
:102DC00001F01F0107F00C070EFA01FE08FA01F8E6
:102DD0005CF8071021EA080141EA0E014CF80710DF
:102DE000916811F0040F916848D10F0746D4C70DC0
:102DF000C0F3045102F1140C4FF0070E07F0040762
:102E00000EFA01FE0397019F07FA01F8039F5CF891
:102E1000071021EA0E0141EA08014CF80710324977
:102E2000096801F07041B1F1805FD16800D0D168CC
:102E3000116E870601F0F841B1EB806F03D1116E7E
:102E400021F000411166516E01F0F8418F4203D12B
:102E5000516E21F000415166916E01F0F8418F42B0
:102E600003D1916E21F000419166D16E01F0F841DD
:102E70008F4203D1D16E21F00041D1669168C9071C
:102E800038D5721C0021D6B2F42202FB045282F81B
:102E9000681046E6DFF834C061E70023C0F88030F0
:102EA000CCF80030C9F804E0F423002203FB0453FB
:102EB000C3E93A22C3F8F0201BE690FAA0FCBCFA62
:102EC0008CFC0AFA0CFC72E7004402580023024012
:102ED000002002400063025800820010445402584F
:102EE0003F960016405902580010005C80080240CE
:102EF00030540258D2F8C0100028029F21EA07017E
:102F0000C2F8C010BDDAAA498A4200F02F8101F54B
:102F100080718A4200F02A8101F1C051DFF894C229
:102F200001F584418F68DCF808E01EF0010F40F0E5
:102F30001181DFF8B8E207F0E078704500F0F78221
:102F4000DFF8ACE2704500F0E382DFF8A8C260452C
:102F500097D17F0295D49748824292D18A6822F015
:102F6000E07242EA080242F480028A6089E7924AEB
:102F7000904249D9914A904240F2CB80904A904287
:102F800000F2BD809A6822F4407242F400729A60A6
:102F9000FFF7D2BB99688B4A8B4E0A4042F002027F
:102FA0009A6003221A6031689A68D2077FF573AC81
:102FB0003268521A022AF7D9F42303FB0453DA6E5B
:102FC00042F01002DA661A6F42F001021A67FFF748
:102FD000E7BB5FFA82F97D4BA9F11009A3FB093920
:102FE0004FEA191945E67A4B1A6841F20303B3EB2D
:102FF000124F09D3F42303FB04539B699A6822F40C
:1030000080729A60FFF798BBF42303FB04539B691B
:103010009A6822F440729A60FFF78EBB9A68D207D2
:103020007FD56C48181A18BF0120F4266A4A06FB9F
:103030000456D6F86CC00CEA020242F48072F266C2
:1030400007B130B1F42202FB0452D06E20F480109C
:10305000D066F42202FB0452D06E10F4805000F0CF
:10306000A580106F20F006001067F4225B4E5C4FC5
:1030700002FB0452DFF880C1506EC6641C26C0E912
:103080000FC71E6000265F6882F8686047F010076F
:103090005F60576CDA6822F003023A43DA6090F816
:1030A0003420012A0CD0012280F8342090F83520F9
:1030B000012A00F0E9804FF4006380F83460436532
:1030C000F422404B02FB0452926991680B4043F09A
:1030D00004039360FFF7FEBA8008FFF7ACBB4FF024
:1030E0000309C6E5D36C13F040537FF47CAF384B33
:1030F0001A6841F20303B3EB124FBFF4ACABF423F5
:1031000003FB04539B699A6842F440729A60FFF78C
:1031100013BB9A6822F4407242F480729A60FFF7FF
:103120000BBBD3F808E02F4A1EEA020F66D0C36E2D
:1031300043F01003C366036F43F001030367F423F6
:10314000002203FB045383F86820FFF7C3BA4FF053
:1031500004098EE5F423002103FB0453DA6E83F89F
:10316000681042F02002DA66FFF7B4BA1E49DFF8B1
:1031700040E0DFF860C08F68DEF808E0DCF808C0E7
:103180001CF0010FE6D11EF0010FE3D1DFF85CC0A7
:1031900060453FF476AEDFF858C060453FF471AE4D
:1031A00007F0E078D1E64FF0050962E510675CE7CB
:1031B000002002400060025821BCBE0041787D0121
:1031C00081F0FA02C0FFFF7FA0260024ABAAAAAAC2
:1031D0000010005C00210240FEF0FFFF59000408CF
:1031E000550004083F00008000230240000084CB0B
:1031F000000052C70000B8CF010004089A68DFF849
:1032000084801F4802EA0802181A42F0010218BF1F
:1032100001209A60D6F800E0DCF8082012F01F0FB9
:1032200014BF024640F00102002A00F030821A6802
:10323000D2073FF5FAAE9A68D20705D49A6802EA37
:10324000080242F001029A603268A2EB0E02022AE2
:10325000EDD9F42303FB0453DA6E42F01002DA6670
:103260001A6F42F001021A6769E74FF0060900E59C
:103270004FF00709FDE44FF0010909F10809F8E4EE
:1032800000210240C0FFFF7F01EB81014FF48C77EA
:10329000DFF808E340338A00D0F858B00092B34A10
:1032A00007FB042C0222B24F80F8352002684665E5
:1032B000BA4218BF72450CBF4FF0010E4FF0000E1E
:1032C00000F07C811837BA4200F02A821837BA42DF
:1032D00000F041821837BA4200F02B821837BA4208
:1032E00000F0B7821837BA4200F0AA821837BA4203
:1032F00000F09D8207F55677BA4200F08F821837AA
:10330000BA4200F0CA821837BA4200F0BD821837BC
:10331000BA4200F0B0821837BA4200F0A3821837E0
:10332000BA4200F072821837BA4200F0658218374C
:10333000BA4200F058828F4FDFF85082424518BFE2
:10334000BA4208F114080CBF01270027424508BF04
:1033500047F0010708F11408424508BF47F001078C
:1033600008F11408424508BF47F0010708F11408A6
:10337000424508BF47F00107D2F8008028F0010855
:10338000C2F80080DFF80C82424508BF47F0010711
:103390001FB9794FBA4240F0AB82D0F86C80D0E9C7
:1033A00019174F60B8F1000F00F0DE81734FDFF89E
:1033B000D0914A4518BFBA4209F130090CBF012724
:1033C0000027D0E91C164A4508BF47F001074E60A8
:1033D0001FB9BEF1000F00F0C781C16D4FF03F096A
:1033E00001F01F0A009909FA0AF9CBF8089016684B
:1033F00026F48026166051608168402900F0EC8038
:103400009360C2F80CC0BEF1000F40F0CC805C4B62
:103410009A4200F0798118339A4200F0698118339A
:103420009A4200F05781574B9A4200F0AE82564BB9
:103430009A4200F09A8218339A4200F0F78203F51C
:1034400056739A4200F0E68218339A4200F0D68210
:1034500018339A4200F0D08218339A4200F0CA82A0
:1034600018339A4200F0C48218339A4200F0BE82A8
:1034700018339A4200F0B88218339A4200F09982C9
:103480003C4B42498A4218BF9A4201F114010CBFD9
:10349000012300238A4208BF43F00103116821F091
:1034A0000E0141F00A01116039498A4208BF43F018
:1034B000010314318A4208BF43F0010314318A42E8
:1034C00008BF43F00103116841F004011160314964
:1034D0008A4208BF43F0010313B9274B9A4212D125
:1034E000D0F86C80036E1968C80303D5196841F4DD
:1034F00080711960B8F1000F05D0D8F8003043F49E
:103500008073C8F80030136843F001031360D7E5F7
:10351000F8013FF5B6AC62457FF4B3AC8A6822F09F
:10352000E07242EA080242F080728A60A9E43F0237
:103530003FF5A7AC62457FF4A4AC8A6822F0E07244
:1035400042EA080242F400028A6013492A68B2FB88
:10355000F1F252000792079A002A3FF492AC079AC0
:10356000013A0792079A002AF9D18AE40000003054
:10357000280002400854025894540258580002404F
:103580004000024088000240A00002401C54025843
:103590004454025880540258400D03001000024069
:1035A0004FF0020969E6136823F01E0343F0160387
:1035B0001360136843F00803136093E7176827F05C
:1035C00001071760D0F86C80D0E919174F60B8F187
:1035D000000F7FF4EBAE00E7C2F808C0D36012E73B
:1035E000B4490144B4488900FFF790BBB34BB44AD7
:1035F000914218BF994202F114020CBF012300232B
:10360000914208BF43F001031432914208BF43F0D6
:1036100001031432914208BF43F001031432914276
:1036200008BF43F001031432914208BF43F0010385
:103630001BB9A44B994240F0CC81F4220220A24B4A
:1036400002FB0452DFF898C20B4482F8B100142048
:103650000092B3FBF0F308689B0000EA0C0C42F206
:10366000A0504CEA00004FF0000C82F8B0C0086097
:103670005046C2F8D830FCF7F9FC009AD2F8D810BE
:10368000012201F01F018A404260FFF7CBB91046CA
:10369000CBE44FF00309F0E501211346DBB28B4880
:1036A0004FF0010EDFF83C92083BA0FB0303884873
:1036B00000EB131C1B094FEA8C0C0EFA03FEFFF7FC
:1036C000E3BA4FF00409D8E54FF00609D5E54FF00D
:1036D0000509D2E57F490B6F23F01E0343F0160363
:1036E0000B670B6F43F008030B67D0F86C80F9E6AB
:1036F00078498B6D23F01E0343F016038B658B6DA9
:1037000043F008038B65F0E772490B6C23F01E034E
:1037100043F016030B640B6C43F008030B64E4E7FF
:10372000DFF8B081D8F8407027F00107C8F8407082
:1037300048E7DFF8A081D8F8707027F00107C8F8D3
:103740007070D0F86C80D0E919174F60B8F1000F95
:103750007FF42CAE41E6DFF87C81D8F8587027F072
:103760000107C8F85870ECE75B4FDFF87C914A45D9
:1037700018BFBA4209F118090CBF012700274A45B2
:1037800008BF47F0010709F556794A4508BF47F0D9
:10379000010709F118094A4508BF47F0010709F177
:1037A00018094A4508BF47F0010709F118094A45B9
:1037B00008BF47F0010709F118094A4508BF47F05B
:1037C000010709F118094A4508BF47F0010709F147
:1037D00018094A4508BF47F001071FB93F4FBA42D1
:1037E00040F08680F9E5DFF80481D8F8B87027F05A
:1037F0000107C8F8B870D0E5DFF8F080D8F8A070FD
:1038000027F00107C8F8A070C7E5DFF8E080D8F816
:10381000887027F00107C8F88870BEE5DFF8CC8013
:10382000D8F8107027F00107C8F81070B5E5DFF878
:10383000A480D8F8B87027F00107C8F8B870ACE5D4
:10384000DFF89080D8F8A07027F00107C8F8A070C2
:10385000A3E5DFF88080D8F8887027F00107C8F862
:1038600088709AE5DFF88480D8F8707027F0010737
:10387000C8F8707091E5DFF87480D8F8587027F0B8
:103880000107C8F8587088E5DFF86080D8F8407004
:1038900027F00107C8F840707FE5DFF85080D8F8BE
:1038A000287027F00107C8F8287076E54FF007095F
:1038B000E3E400BF3F820010400902400854025870
:1038C0001C54025894540258F8ABFDA7CDCCCCCC74
:1038D000009600160000024088000240B804024032
:1038E0000F00FEFF80580258A00002400004024072
:1038F0004F4FDFF85081424518BFBA4208F1140813
:103900000CBF01270027424508BF47F0010708F117
:103910001408424508BF47F0010708F11408424562
:1039200008BF47F0010708F11408424508BF47F0F7
:10393000010708F11408424508BF47F001071FB905
:103940003C4FBA427FF46FADC16D012701F01F08F3
:10395000009907FA08F7CBF8047051608168402994
:1039600023D09360C2F80CC051E53349D1F8A030A0
:1039700023F01E0343F01603C1F8A030D1F8A030A5
:1039800043F00803C1F8A030AFE62B49D1F88830E6
:1039900023F01E0343F01603C1F88830D1F88830B5
:1039A00043F00803C1F888309FE6C2F808C0D3602E
:1039B0002DE52249D1F8B83023F01E0343F0160359
:1039C000C1F8B830D1F8B83043F00803C1F8B830C6
:1039D0008BE64023C0F8D03080F8B1C0FEF77ABE45
:1039E000174B5BE6134659E61449BFE71349CDE789
:1039F000124970E611497CE6104986E60F498B6A48
:103A000023F01E0343F016038B628B6A43F0080316
:103A10008B626AE609490B6923F01E0343F0160323
:103A20000B610B6943F008030B615EE60249C1E7D5
:103A30000854025894540258000002400004024006
:103A4000585402581C5402580148FCF74FBD00BF9F
:103A500018270024074810B4836FD0F8AC40996948
:103A60001A6824B1234678305DF8044B18475DF896
:103A7000044B7047A02600240148FCF737BD00BF67
:103A800068270024084810B4D0F8C830D0F8FC40AB
:103A900099691A6824B12346C8305DF8044B184769
:103AA0005DF8044B704700BFA02600240148FCF7D6
:103AB0001DBD00BFB8270024084810B4D0F8183145
:103AC000D0F84C4199691A682CB1234600F58C70E6
:103AD0005DF8044B18475DF8044B7047A02600249E
:103AE0002DE9F04FDFF8589300EB400583B0430019
:103AF00009EB85050093D5F8E4320193002B00F023
:103B00005F818046B5F8EA0268F0F4F995F8E802BA
:103B100008F0B4FC044695F8E90208F0AFFC08F19F
:103B200001030746DBB2002C00F06F8140F60C1257
:103B3000A1882372E2802268002800F05A81037273
:103B400040F60C23C38091613B68BA889A611121C9
:103B50002046092608F0E6FC1121384608F0E2FC70
:103B60006525002C00F02F812268A38811690B4283
:103B700000F029811B04936110F0B6FB05468B46CB
:103B800010F0B2FB401B61EB0B01052871F1000145
:103B9000F6D314B12368A2889A6110F0A5FB0546FC
:103BA0008B4610F0A1FB401B61EB0B01052871F166
:103BB0000001F6D3013ED3D11CB1A38822681B04B7
:103BC000936110F091FB05460E4610F08DFB401BF3
:103BD00061EB0601052871F10001F6D31FB1BB8826
:103BE0003A681B04936110F07FFB05460E4610F007
:103BF0007BFB401B61EB0601052871F10001F6D348
:103C000014B12368A2889A6110F06EFB05460E4637
:103C100010F06AFB401B61EB0601052871F1000101
:103C2000F6D317B13B68BA889A61009B20463E21C3
:103C30004FEA8805434409EB830393F8EF42224699
:103C40000CF088FD224638463E210CF083FD774C6F
:103C500008EB8803019A04EB03139A67744B9A42AA
:103C600000F0C280FDF752FD724BDA69C2F3021216
:103C7000714B134493F8303003F01F03D840009B7E
:103C8000434409EB830393F8EC32022B00F0B88035
:103C9000032B00F0B080012B14BF4FF4C8714FF418
:103CA000487168F055FA034605EB0802002104EB61
:103CB0000212C2F88010D367C2E92211C2E92511AD
:103CC0000121C2F8841092F8B91001F0FF00002918
:103CD00000F0A38005EB080123F0706224274FF465
:103CE000004C04EB011155488B6F81F8B9701E68C8
:103CF00026F001061E601A619A6822F400429A605A
:103D0000C3F808C05A681043D1F8902058601202D6
:103D1000D86820F40040D860DA6000221A60186881
:103D200040F0010018602020C1F8BC2081F8B900E3
:103D3000C1F8A82081F8BA2091F8B9002028C6B2AD
:103D400017D191F8B800012813D081F8B97018681C
:103D500020F001001860186820F48050186018687E
:103D60001860186840F00100186081F8B96081F8A7
:103D7000B820009B0221DFF8CCA04544434404EB6B
:103D8000051409EB830999F8EE72384668F0F0FDE6
:103D900099F8ED6207F01F034FF001097F093046E3
:103DA00009FA03F302214AF8273068F0E1FD06F032
:103DB0001F03760909FA03F34AF8263084F8749051
:103DC00003B0BDE8F08F013D2AD010F08DFA834694
:103DD0008A4610F089FAB0EB0B0061EB0A01052866
:103DE00071F10001F5D3BCE6FDF790FC114B1A6AA6
:103DF0003CE79161ABE6C82168F0AAF9034653E7B6
:103E0000642168F0A5F903464EE700283FF49FAE11
:103E1000037240F60C23C38096E682F8B80059E797
:103E2000002C3FF4A9AEA3882268A3E6A0260024B4
:103E3000001C00580044025818AB0B080080000218
:103E40000000002400E100E02DE9F04F441C83B0A5
:103E500091469DF8342031D000EB800CBE4D0646D3
:103E6000870005EB0C104FEA0C1C90F874A0BAF117
:103E7000000F23D0AC44B9F1FF0F9E464FEA410832
:103E80000CF1780400D0FBB9002A40F0AF80BA19D9
:103E900005EB021292F8B910202906D1BEF1000FED
:103EA00016D14FF40073C2F8BC30B5F86431304617
:103EB00001339BB2A5F86431FFF712FE4FF0000A00
:103EC000504603B0BDE8F08F90F8B920202AECD11D
:103ED000BA1905EB021292F8B8100129E5D00121B8
:103EE000D5F800B082F8B810916F05E02A68A2EB0F
:103EF0000B02192A00F2EB80886910F40040F5D11A
:103F0000BA194FF0210C0C9B05EB021282F8B9C0D4
:103F10004FF0400CC2F89C3082F8BAC0C2F8AC0036
:103F2000C2F8BC008D48A2F8A2E04B6801920340A1
:103F30008B4843EA0803184348605946204668F016
:103F400091FC002840F06C81019A916FC1F8289093
:103F500005E02B68A3EB0B030A2B00F254818A695E
:103F600012F08002F5D0BA1905EB0212B2F8A230B5
:103F70009BB2FF2B40F26C814B687A4803407A4831
:103F800043EA08031843FF23A2F8A030486007EB78
:103F9000060905EB091905E0B9F8A2309BB2002B20
:103FA00000F007815946204668F05CFC00287FF449
:103FB0007CAFD9F89C30D9F8782013F8010BB9F808
:103FC000A0109062C9F89C300139B9F8A23089B2CA
:103FD000013BA9F8A0109BB2A9F8A230B9F8A23011
:103FE0009BB20029D8D1002BD6D0A0E0BA1905EB9E
:103FF000021292F8B91020297FF457AF92F8B81046
:1040000001293FF452AF0121D5F800B082F8B81071
:10401000916F05E02A68A2EB0B02192A00F20781D2
:104020008A6912F40042F5D1B8194FF0210C0C9BAB
:1040300005EB001080F8B9C04FF0100CC0F89C30B0
:1040400080F8BAC0C0F8BC20A0F8A2E0B0F8A23056
:10405000C0F8AC209BB2FF2B40F20A814B683F4A6C
:104060001340424A43EA08031A43FF23A0F8A03052
:104070004A6007EB060905EB0919B9F8A230594661
:1040800020469BB2002B00F0968068F0EBFB0028E6
:104090007FF40BAFD9F89C30D9F8782013F8010BD6
:1040A000B9F8A0109062C9F89C300139B9F8A23073
:1040B00089B2013BA9F8A0109BB2A9F8A230B9F8C7
:1040C000A2309BB2002BD8D00029D6D115E03744BE
:1040D0002021002205EB0717D7F8BC3087F8B8205D
:1040E0000B43C7F8BC3087F8B91087F8BA20DCE674
:1040F0002B68A3EB0B030A2B3AD8916911F08001CE
:10410000F6D0B9F8A2309BB2FF2B6CD95368154991
:104110000B40154943EA08031943FF23A9F8A030CF
:104120005160AAE72B68A3EB0B030A2B20D89169F7
:1041300011F08001F6D0B9F8A2309BB2FF2B28D93C
:10414000536808490B40084943EA08031943FF2311
:10415000A9F8A03051601FE7A0260024009800FCB9
:1041600000200181009C00FC0000FF010020FF8175
:10417000374405EB0717D7F8BC3087F8B81043F081
:104180002003C7F8BC30202387F8B93087F8BA106D
:104190008BE6B9F8A2303E489BB25168A9F8A0302E
:1041A000DBB2014048EA03430B4343F00073536022
:1041B000F2E65946204668F02BFB00287FF475AEE6
:1041C000D9F878302021334C3744D9615A682240DD
:1041D0005A60002205EB071389F8B91089F8BA0074
:1041E00083F8B8206CE6B9F8A23029489BB2516830
:1041F000A9F8A030DBB2014048EA03430B4343F087
:104200000073536039E7BB19202005EB0313D3F883
:10421000BC100143C3F8BC1083F8B90083F8BA207E
:10422000BB19002205EB031383F8B8203DE6BB1948
:104230002020002105EB0313D3F8BC2083F8B8102D
:104240000243C3F8BC2083F8B90083F8BA102CE607
:10425000B2F8A2300E489BB2A2F8A030DBB24A6896
:1042600048EA03430240134343F000734B608EE679
:10427000B0F8A2304A689BB2A0F8A030DBB2064882
:1042800048EA034302401343044A1A434A60F0E6F3
:10429000009C00FC00E800FE009800FC002000826A
:1042A0002DE9F04F451C83B014469DF8342000F0F2
:1042B0008B800646DFF8B8A300EB8000B7000AEB5E
:1042C000001C00019CF87490B9F1000F7CD05044A0
:1042D000FF2C9E464FEA410800F178057AD1002A6A
:1042E00078D09CF8B920202A65D19CF8B820012A02
:1042F00061D00122DCF87810DAF800408CF8B820A0
:1043000005E0DAF80020121B192A00F219818A69E7
:1043100012F40042F5D1B8194FF0220C0C9B0AEBB5
:10432000001080F8B9C04FF0100CC0F89C3080F835
:10433000BAC0C0F8BC20A0F8A2E0B0F8A230C0F823
:10434000AC209BB2FF2B00F21181B0F8A2304A687A
:104350009BB2A0F8A030DBB2BF4848EA034302405A
:104360001343BE4A1A434A6007EB060B0AEB0B1BCA
:10437000BBF8A2309BB2002B00F0C981DBF878209B
:104380000CE0DBF87820916911F0200140F04981C0
:10439000DAF800301B1B0A2B00F26C81936921466E
:1043A00028465B0700F102819369DB06EBD568F0D4
:1043B000F1F90028E5D0BAF86431304601339BB2F8
:1043C000AAF86431FFF78CFB4FF00009484603B0B0
:1043D000BDE8F08FBA190AEB021292F8B910202941
:1043E000E9D10C99002900F0BC8092F8B81001299D
:1043F000E1D00121DAF800B082F8B810916F06E040
:10440000DAF80020A2EB0B02192A00F299808869E1
:1044100010F40040F4D1BA194FF0220C0C9B0AEBB7
:10442000021282F8B9C04FF0400CC2F89C3082F8FA
:10443000BAC0C2F8AC00C2F8BC008748A2F8A2E03B
:104440004B680192034000F1044043EA080300F581
:104450000840184348605946284668F003FA002887
:1044600040F09D80019A916F8C6206E0DAF800308E
:10447000A3EB0B030A2B00F285808A6912F040023D
:10448000F4D0BA190AEB0212B2F8A2309BB2FF2B99
:1044900040F261814B6870480340714843EA080369
:1044A0001843FF23A2F8A0304860BC190AEB04149B
:1044B000A16F06E0DAF80030A3EB0B030A2B00F241
:1044C000E8808A6912F00402F4D04A6AD4F89C3079
:1044D0001A70B4F8A230B4F8A020013B013A9BB2A4
:1044E00092B2A4F8A230D4F89C30A4F8A0200133F2
:1044F000C4F89C30B4F8A2309BB213B1002A00F08B
:10450000E980B4F8A2309BB2002BD1D1594628469D
:1045100068F07EF9034600287FF44DAFA26F20209B
:10452000504DD06151682940516084F8B90084F839
:10453000BA30374400230AEB071A8AF8B83045E747
:10454000BB19202000210AEB0313D3F8BC2083F809
:10455000B8100243C3F8BC2083F8B90083F8BA103E
:1045600029E74FF40073C2F8BC3024E74B683A4A9D
:1045700013403B4A43EA08031A43FF23A0F8A03044
:104580004A60F1E6BB1920200AEB0313D3F8BC10F4
:104590000143C3F8BC1083F8B90083F8BA20BB19F3
:1045A00000220AEB031383F8B82004E7526ADBF811
:1045B0009C301A70BBF8A230DBF89C20013B013222
:1045C0009BB2CBF89C20ABF8A230BBF8A030BBF874
:1045D000A220013B92B29BB2ABF8A030002A3FF47C
:1045E000C7AE002B7FF4C4AEDBF8781004E0DAF835
:1045F00000301B1B0A2B4CD88A6912F08002F6D0BF
:10460000BBF8A2309BB2FF2B54D94B68164A13401B
:10461000164A43EA08031A43FF23ABF8A0304A6066
:10462000A6E69369590703D5BBF8A030002BBDD18E
:1046300020200C4CBB19D06151680AEB03132140B8
:1046400051600022C3F8BC2083F8B82083F8B90079
:1046500083F8BA20AFE600BF009800FC0024008277
:104660000024FF8100E800FE009C00FC0000FF0128
:10467000A026002437440AEB0717D7F8BC3087F888
:10468000B81043F02003C7F8BC30202387F8B930B6
:1046900091E6BB190AEB0313D3F8BC1083F8B820DA
:1046A00041F02001C3F8BC10202183F8B91083F831
:1046B000BA2080E6BBF8A2302F489BB24A68ABF81C
:1046C000A030DBB2024048EA0343134343F00073D7
:1046D0004B604DE6A16F05E0DAF80030A3EB0B0369
:1046E0000A2BD6D88A6912F08002F5D0B4F8A2302D
:1046F0009BB2FF2B1FD94B681F4A13401F4A43EA46
:1047000008031A43FF23A4F8A0304A60F9E62146C3
:10471000284668F07DF800287FF44DAEDBF878304D
:104720002021174CD9615A6822405A608BF8B91081
:104730008BF8BA00FDE6B4F8A2300F489BB24A6885
:10474000A4F8A030DBB2024048EA0343134343F02D
:1047500000734B60D5E6B2F8A2300A489BB2A2F8CB
:10476000A030DBB24A6848EA034302401343064ADA
:104770001A434A6099E600BF009C00FC0000FF015C
:1047800000E800FE009800FC002400820348D0F8F6
:10479000143313B100F5427018477047000000242D
:1047A0000348D0F8343313B100F54A701847704706
:1047B000000000240348D0F8543313B100F55270C0
:1047C00018477047000000240348D0F8743313B131
:1047D00000F55A7018477047000000240348D0F8CD
:1047E000943313B100F5627018477047000000243D
:1047F0000348D0F8B43313B100F56A701847704716
:10480000000000240348D0F8D43313B100F57270CF
:1048100018477047000000240348D0F8F43313B160
:1048200000F57A7018477047000000240348D0F85C
:10483000143413B100F5816018477047000000245C
:104840000348D0F8343413B100F585601847704739
:10485000000000240348D0F8543413B100F58960F7
:1048600018477047000000240348D0F8743413B18F
:1048700000F58D6018477047000000240348D0F809
:10488000943413B100F5916018477047000000247C
:104890000348D0F8B43413B100F595601847704759
:1048A000000000240348D0F8D43413B100F5996017
:1048B00018477047000000240348D0F8F43413B1BF
:1048C00000F59D60184770470000002410B41C4696
:1048D000436884466FF30F0323434360036843F048
:1048E00001030360036843F400730360002C3AD0B3
:1048F00040F2E930DCF814309B0748D5002A49D053
:1049000012F8013B40F2E9308CF82030DCF814302A
:10491000DB0720D40138F9D1214B9C450CD0A3F5FD
:1049200078439C4538D003F580639C4536D003F529
:1049300078439C450BD103201A4A00EB400002EB60
:10494000C002B2F81C3501339BB2A2F81C3500201E
:104950005DF8044B70479CF83000C0B209B101F813
:10496000010B013CC4D1DCF814301B07FBD5DCF88B
:10497000183001205DF8044B43F01003CCF81830D8
:10498000DCF8003023F00103CCF800307047013828
:10499000B0D1C1E7FF23B5E70120CDE70220CBE787
:1049A00000300140000000242DE9F84300242C4E83
:1049B0008046036856F83450AB4209D001340E2CBF
:1049C000F8D1284A0021052008F020FB002019E03A
:1049D000254B03EB8409D9F86871AFB198F805103D
:1049E00000204B1C01EB410203EB430307EBC20227
:1049F000DB00C2F80C80C2E90400F854182303FB62
:104A000001700830BDE8F8830721682008F084FBB6
:104A10000146C9F86801E8B13946682274F022FFFE
:104A2000D9F8681106EBC4043B4689600C60096242
:104A30008963096556F83320954205D001330E2B62
:104A4000F8D14F600F46C9E7084F07EB83174F6057
:104A50000F46C3E7064A052008F0D8FAB6E700BFBC
:104A600020AC0B08644C0C08A0260024402800242D
:104A70008C4C0C08B0B1022330B4D0E900428D68F0
:104A80006468527903FA02F223684C685CB1DC680E
:104A900085B122438160DA60DA6842F00102DA60AF
:104AA00030BC70477047DC6824EA0202DA604DB11E
:104AB0008160F1E724F00104DC60DC68816022435E
:104AC000DA60EDE7DA6822F00102DA608160E7E798
:104AD000F0B44468A37913F0020266D002224FF0CA
:104AE000080C036864795B689D48204493F83C4057
:104AF000012C90F8780156D0012483F83C40022420
:104B000083F83D40142848D8DFE810F086004700BD
:104B100047004700C10047004700470036014700F3
:104B200047004700F60047004700470015004700D0
:104B300047004700510018688A4E046AB04224F4C6
:104B400080340462046A456824F4003444EA024272
:104B5000446D24F0700444F060040ED006F58066C5
:104B6000B0420AD0804F06F58046B04218BFB84226
:104B700003D006F58066B04201D145F4803545602A
:104B8000446581650262426D42F008024265426DF1
:104B900022F004024265426D42650121002283F841
:104BA0003D1083F83C20F0BC7047944699E71868A4
:104BB0006C4E046AB04224F480140462046A4568AE
:104BC00024F4001444EA0252446D24F4E04444F412
:104BD000C0440ED006F58066B0420AD0624F06F59A
:104BE0008046B04218BFB84203D006F58066B04296
:104BF00003D125F4003545F4802545604465C16541
:104C00000262426D42F400624265426D22F48062AB
:104C10004265426D4265C0E71868544D046A514EC2
:104C200024F00104B0420462046A24F0020442EA5F
:104C300004024468876905EA070545F060050FD05E
:104C400006F58066B0420BD006F57056B04207D02C
:104C500006F58066B04203D006F58066B04207D103
:104C600022F0080244F440744CEA020222F00402EA
:104C70004460856141630262826942F00802826198
:104C8000826922F0040282618269826185E7186884
:104C9000374D046A334E24F01004B0420462046AB3
:104CA00024F0200444EA02124468876905EA0705F3
:104CB00045F4C04500F0998006F58066B04200F0EA
:104CC0009480294F2B4EB04218BFB84203D006F54E
:104CD0008066B04201D144F44064446085618163E0
:104CE0000262826942F400628261826922F4806217
:104CF00082618269826150E718681A4E046AB04284
:104D000024F480540462046A456824F4005444EA9C
:104D10000232C46924F4E64444F4C0440ED006F5DB
:104D20008066B0420AD0104F06F58046B04218BFE8
:104D3000B84203D006F58066B04201D145F4804503
:104D40004560C46101640262C26942F40062C261EA
:104D5000C26922F48062C261C269C2611DE700BFFC
:104D600018AB0B0800000140004001408CFFFEFF23
:104D7000FF8CFFFE0044014018681F4D046AA842E2
:104D800024F480740462046A466824F4007444EADB
:104D90000222C46924F0730444F060041ED005F5B7
:104DA0008065A8421AD0154F154DA84218BFB842C9
:104DB00003D005F58065A84201D146F4405646600F
:104DC000C461C1630262C26942F00802C261C26981
:104DD00022F00402C261C269C261DEE622F400620E
:104DE00042EA0C2222F48062E7E722F0800242EAE3
:104DF0000C1222F040026EE700000140004001402A
:104E00000044014042685379032B0FD8DFE803F0D8
:104E10000B08050210684030704710683C3070473E
:104E20001068383070471068343070470020704781
:104E3000D0E90002064B517992790B44406893F80F
:104E40007811530701D56BF083BA6BF0A3BA00BF9A
:104E500018AB0B084268C36812695B68C2F303228F
:104E6000F0B5364C04EB82029668EFF31182102500
:104E700085F312884568324F95F805E0D0F80CC0EC
:104E800004EB4E04D5F800E0258DDEF80C4005F467
:104E9000F05524EA0504CEF80C4017F806E0DCF8DB
:104EA000104053F80E501F2C25F0010543F80E500A
:104EB00039D9203C2025DCF804C005FA04F4CCF8EC
:104EC0000C40D2B282F31188BA5DDFF878C003EBF0
:104ED000020E46684569DEF8044004EA0C0C4CEA10
:104EE0000101CEF804107179032924D8DFE801F01C
:104EF0001815120231684031CEF80C500124CEF85A
:104F00000810995841F0100199509958214399502F
:104F10000474F0BD31683C31EEE731683831EBE7BD
:104F200031683431E8E72025DCF804C005FA04F4E0
:104F3000CCF80840C5E70021DEE700BF18AB0B083E
:104F4000F4AC0B080000FFFF03681A7E012A2ED084
:104F5000002293F83010012909D093F84810012954
:104F60000ED093F8601001291BD02ABB7047022194
:104F700042F4806283F8301093F84810012904D17C
:104F8000022142F4006283F8481093F8601001296E
:104F900007D01B6800211B685962D9680A43DA6090
:104FA0007047022142F4805283F86010F1E7022139
:104FB0004FF400721976CCE74FF40072E9E700BFB6
:104FC00008B5204B98420ED003F5806398420AD072
:104FD0001D4A03F58043984218BF904203D003F561
:104FE000806398421BD1FCF791FB1849184BCA69A2
:104FF000C969C2F30222C1F302211A4492F8302097
:1050000002F01F02D040114A1269C2F3C03241EAD5
:10501000C202134493F87C3103FB00F008BDFCF797
:1050200075FB0A490A4BCA69C969C2F3021CC1F37C
:10503000021103EB0C0292F8302002F01F02D04064
:10504000E1E700BF00000140004001400044025879
:1050500018AB0B0870B50E4605EE102AD0E90031EA
:10506000013E1A680868B6B25C681568FFF7A8FFC9
:1050700007EE900AB8EE455A9FED527AF8EE677A3D
:1050800087EE850A30EE070A70F03AF92368013896
:10509000AB4280B252D0C4E9005000238022E660C7
:1050A000A360A261C4E9043394F83D3003F0FF0229
:1050B000002B62D00223211D284684F83D30FDF7E5
:1050C0008DF8414B0122B5F1804FA5EB030384F825
:1050D0003D20B3FA83F34FEA531334D09BBB3B4AD2
:1050E00095420CD002F58062954208D002F58062AC
:1050F000954245D002F57842954241D070BD94F872
:105100003C30012BFAD00222314B012184F83D20A2
:10511000A8680340AB6084F83D1084F83D206A68BD
:10512000A96822F0700221F08001012000236A604A
:10513000A96084F83D0084F83C3070BD6368834208
:105140003AD06060A9E794F83C20012AD6D0022129
:105150001F4A002084F83D10A9680A400121AA6076
:1051600084F83D10022284F83D206A68A9680BB9D2
:105170000028D6D022F47002D3E784F83C2099E7C7
:1051800094F83C20012AB9D00221114A114884F830
:105190003D10A968281A0A40B0FA80F00121AA60DF
:1051A0000022400984F83D1084F83C200A4A9542C8
:1051B000D8D00028D6D170BDE368B3427FF46DAF7C
:1051C00070BD00BF0AD7233C00000140000400402E
:1051D0008800CEFF00040140000C0040024B034851
:1051E000D3F86811FCF79CB9A02600240000014008
:1051F000034B4FF08040D3F86C11FCF791B900BF1E
:10520000A0260024024B0348D3F87011FCF788B99C
:10521000A026002400040040024B0348D3F8741178
:10522000FCF77EB9A026002400080040024B03488A
:10523000D3F87811FCF774B9A0260024000C0040C4
:10524000024B0348D3F88411FCF76AB9A026002466
:1052500000040140024B0348D3F89411FCF760B9F5
:10526000A026002400180040024B0348D3F8A011E8
:10527000FCF756B9A026002400400140024B034829
:10528000D3F8A411FCF74CB9A02600240044014037
:10529000024B0348D3F8A811FCF742B9A02600241A
:1052A0000048014010B5064C0648D4F88411FCF7BC
:1052B00037F9D4F898110448BDE81040FCF730B92C
:1052C000A026002400040140001C004010B5064C3C
:1052D0000648D4F88411FCF723F9D4F89C1104484B
:1052E000BDE81040FCF71CB9A026002400040140D2
:1052F00000200040BFF34F8F0549064BCA6802F4F7
:10530000E0621343CB60BFF34F8F00BFFDE700BFE8
:1053100000ED00E00400FA050021012008B50DF0C1
:1053200019FC72B6FFF7E6FF2DE9F043BFB0BFF3FB
:105330005F8F8A4C0021626A0B460D4622F4803250
:1053400062620A46C4F89410C4F898300133C4F875
:105350009C20112BC4F8A020F6D10523C4F894306A
:10536000636A43F480336362BFF34F8FBFF36F8F81
:105370007B487C4A7C49121A73F04CF9D4F8882097
:105380007A4B012142F47002C4F8882019601D6133
:105390001A6842F080021A601A680A431A601A6892
:1053A00042F480321A601A6842F480521A609D6199
:1053B000DD611D629D62DD621D635D639D63DD6372
:1053C0001D645D641A6822F480221A601D664FF025
:1053D0000063674AC2F80811A3606CF01DF9654AC2
:1053E000D36813F0040FD36840F0A380624B002110
:1053F000604A0591D96A21F00101D962DB6A03F0A4
:1054000001030593936943F440439361936903F463
:1054100040430593059B93699E04FCD54C220021D3
:105420000EA8564C74F01EFA554A42F20303A4F13A
:1054300010011268B3EB124F4FF000024FF004035B
:1054400008BF0C460892E268A370002A4CD1494A72
:10545000494B916941F440419161926902F44042A3
:105460000892DA6A42F00102DA62DB6A03F00103B1
:105470000893089B3F4A93699D04FCD53B4B4FF42E
:10548000403540480321D3F8E02042F08002C3F8C1
:10549000E0200122D3F8E03003F080030793079B5C
:1054A00085610D9BCDE9001300236BF077FD02238E
:1054B00001204FF48031A288CDE9173304231993DA
:1054C000A379CDE90E01E079217A1C900EA81D91F7
:1054D000CDE91A2308220023CDE91E23FBF796F914
:1054E000032838D0A0B1FEE7234BD96A21F001018F
:1054F000D962DB6A1F4903F0010308938B6923F427
:10550000404313438B618B6903F440430893B0E736
:105510001D4B1A6812F00E0F3AD11A6822F00F02D2
:1055200042F002021A601B6803F00F03022B2FD017
:10553000FEE723F00703154C43F00203D360216814
:1055400005E023685B1AB3F57A7F3FF64FAF5368E7
:105550009F04F6D54AE7FFF7DFFE00BF00ED00E04D
:105560000000000010300000A0C40C0800440258E5
:1055700000800051004802580004005878050024BB
:105580000010005C001C025800200052A0260024DD
:105590006C4A936903F070033F2B05D8936923F09D
:1055A000700343F040039361664AD36903F07003CC
:1055B0003F2B05D8D36923F0700343F04003D36138
:1055C000604AD36903F4E063B3F5806F05D2D36911
:1055D00023F4E06343F48063D3615A4A136A03F00F
:1055E00070033F2B05D8136A23F0700343F0400388
:1055F0001362544B9A69100705D49A6922F00F027E
:1056000042F008029A614F4A936923F470639361F0
:10561000136899018CD5136941F288314A4C23F003
:10562000070343F003031361206804E023681B1A97
:105630008B4200F29981136903F03803182BF5D1DE
:10564000936903F00F03082B05D9936923F00F0327
:1056500043F0080393613D4A136803F00F03022BE4
