:020000040800F2
:10000000000002200DF50A0891F50A086D52060855
:1000100091F50A0891F50A0891F50A080000000018
:1000200000000000000000000000000091F50A0838
:1000300091F50A080000000091F50A08211605084C
:1000400091F50A0891F50A0891F50A0891F50A0850
:1000500091F50A0891F50A08FDF1040801F2040877
:1000600005F2040809F204080DF204082D4F0408F3
:10007000414F0408554F0408694F04087D4F040898
:10008000914F0408A54F040891F50A0891F50A0854
:1000900091F50A0891F50A0891F50A0811F2040889
:1000A00091F50A0891F50A0891F50A081D59040806
:1000B000315904084559040859590408D141040824
:1000C000C541040805420408F941040891F50A08ED
:1000D00091F50A085963040865630408716304080C
:1000E00015F2040891F50A0800000000955904086B
:1000F000E55904080D5A040881590408B94F040849
:1001000091F50A0891F50A086D59040891F50A0855
:100110007D63040891F50A0891F50A08A976040898
:10012000CD4F0408E14F0408F54F040809500408B6
:100130001D50040891F50A0891F50A0891F50A087E
:1001400000000000000000000000000000000000AF
:1001500031500408455004085950040889630408C4
:10016000394204082D42040891F50A0891F50A085D
:1001700091F50A0891F50A0891F50A0800000000B7
:1001800091F50A0891F50A0895630408A16304082B
:1001900091F50A0891F50A0891F50A0891F50A08FF
:1001A00091F50A0891F50A0891F50A0891F50A08EF
:1001B00091F50A0891F50A0891F50A0891F50A08DF
:1001C00091F50A0891F50A0891F50A0891F50A08CF
:1001D00091F50A087165040891F50A0891F50A0875
:1001E00091F50A0891F50A0891F50A0891F50A08AF
:1001F00091F50A0891F50A0891F50A0891F50A089F
:1002000091F50A0891F50A0891F50A0891F50A088E
:10021000A9590408BD590408D159040891F50A08E0
:1002200091F50A0891F50A0891F50A080000000006
:1002300091F50A0891F50A080000000091F50A08F6
:1002400091F50A0891F50A0891F50A0891F50A084E
:1002500091F50A0891F50A0891F50A0891F50A083E
:1002600091F50A0891F50A0891F50A0891F50A082E
:1002700091F50A0891F50A0891F50A0800000000B6
:1002800091F50A080000000091F50A08000000003E
:080290000000000091F50A08CE
:0802980008E50A000100000066
:1002A000E87401240201000001012C0008750124FA
:1002B000010C0000000076002875012401100000E8
:1002C0000000760048750124010D01000000770050
:1002D0006875012401120000000076008875012471
:1002E0000114000000001E00A8750124011A00007E
:1002F00000000D00C87501240115000000000C006D
:10030000E87501240116000000000C0008760124A5
:10031000011B000000000E0028760124011C0000D3
:1003200000001E00487601240117000000000C00A8
:10033000687601240118000000000E008876012470
:100340000119000000000C00A8760124011E000025
:1003500000000C00C8760124011F000000000C0002
:10036000E876012401280100000018000877012424
:10037000012000000000480028770124012100002E
:1003800000004900487701240122000000004A00D3
:10039000687701240123000000004B0088770124C6
:1003A0000124000000004C00A87701240125000072
:1003B00000004D00C87701240126000000004E0017
:1003C000E87701240127000000004F00087801248D
:1003D000012B00000000290028780124012C0100D5
:1003E0000000290048780124012D01000000700060
:1003F00068780124012E0100000052008878012451
:10040000012F010000002800A8780124013001001C
:1004100000002800C878012402290500000014000B
:10042000E87801240231000000021F00087901244D
:100430000232000000021F0028790124013300006D
:1004400000003C0048790124013600000000200033
:020000040804EE
:10000000836B5A6D12F0500F5A6D1AD1196842F471
:1000100000725A650A6812F0080FCA6816D012F406
:10002000406F15D1CA68920412D45A6D22F48072BE
:100030005A655A6DD1040BD45A6D42F001025A65CB
:100040007047D20604D4DB6CDB6C18479007ECD009
:10005000704700BF704700BF836B5A6D42F040028B
:100060005A659A6D42F004029A65704702685549D4
:1000700038B5554B554D564CAA4218BF9A420CBF45
:10008000012300238A4208BF43F001033031A2421A
:1000900008BF43F0010330348A4208BF43F0010334
:1000A0003031A24208BF43F0010330348A4208BF16
:1000B00043F0010301F55C71A24208BF43F0010364
:1000C00004F55C748A4208BF43F001033031A24258
:1000D00008BF43F0010330348A4208BF43F00103F4
:1000E0003031A24208BF43F0010330348A4208BFD6
:1000F00043F001033031A24208BF43F001038A42BA
:1001000008BF43F0010313B9324B9A4208D10423CC
:1001100080F83530136823F001031360002038BDE8
:100120002D4B2E4D1168AA4218BF9A422C4C21F03B
:100130000E0105F13C050CBF012300231160A24212
:1001400008BF43F0010311682834AA4208BF43F0F6
:10015000010321F00101A24208BF43F0010314345E
:100160001160A24208BF43F001031E498A4208BF42
:1001700043F0010313B91C4B9A4217D10123856D3B
:10018000D0E91714226801F01F0122F480728B401D
:1001900022606B60C36ED0E91921516033B11A68D7
:1001A000D0E91C1422F480721A604C6000210122F4
:1001B000036D80F8341080F83520002BAED09847BE
:1001C000ACE700BF4000024010000240280002409F
:1001D00058000240B80402401C5402580854025807
:1001E000305402588054025894540258002280F827
:1001F000422090F84130292B04D090F841302A2B2E
:1002000018D070474FF0280C2123016880F841C0B6
:10021000036390F8413003EA0C0363450B6814BF95
:100220006FF0F20C6FF0420C03EA0C030B6080F8E5
:10023000402070474FF0280C2223016880F841C00D
:10024000036390F8413003EA0C0363450B6814BF65
:100250006FF0F40C6FF0440C03EA0C030B6080F8B1
:10026000402070470023202210B4174C4363C4621F
:10027000036380F8412080F842304B07026811D5B3
:10028000526A436A1A70436A028D013343624AB16B
:10029000438D013A013B02859BB24385436C43F099
:1002A000040343640368102490F84120002190F86F
:1002B00041201A6822F0FE021A60DC615DF8044BEE
:1002C00080F84010704700BF0000FFFF70B50023AA
:1002D00090F84120424D044680F84230283AC562E9
:1002E0004385022A406C236840EA0100606439D8E3
:1002F00094F84110282094F8412001F0280102F0E0
:100300002802282914BFF6214621282A1A680CBF82
:10031000C9436FF0F6010A4032491A60002284F89E
:10032000410022631A68616312F4804231D01A6876
:10033000A06B22F480421A6098B100222A4B036518
:1003400084F8402090F83520022A3CD08022426573
:10035000BDE87040184794F84130602B3AD084F8DB
:10036000401070BD94F8412094F841201A6822F0A2
:10037000FE021A6094F84120602A02D0202284F8FC
:1003800041200022114622631A68616312F4804200
:10039000CDD1196811F40041DDD01968E06B21F46A
:1003A000004119600028DCD00F4B036584F8402021
:1003B00090F83520022AC9D1FFF758FE0028D0D086
:1003C000E06B036DC4E7FFF751FE0028C9D0A06BB6
:1003D000036DBDE7202384F8401084F8413070BDE0
:1003E0000000FFFF65040408F106040803689A6929
:1003F000196810B4D40528D50C0606D4416C11F048
:100400000B0F1FD15DF8044B7047416C4FF48074A3
:1004100041F0010141645105DC6120D5416C4FF48C
:100420008064920541F008014164DC61E6D5426CCC
:100430004FF4007142F002024264D961416C11F044
:100440000B0FDFD05DF8044B40E7540502D50906D9
:10045000E4D4D3E79405D1D50906E8D4CEE79205D4
:10046000E5D4CBE72DE9F84390F84030C76A012B7B
:1004700000F0D780012304460D46164680F8403030
:10048000880601D591065FD4EA0621D5F3061FD56B
:10049000638D9BB2002B40F0AA8094F84130B7F1F5
:1004A000007FDBB202D1282B00F0198194F8413093
:1004B00017F5803F2268DBB202D0292B00F0D380F1
:1004C0001023D3610023184684F84030BDE8F88338
:1004D0006A071BD4280702D5310700F19880AA07C4
:1004E000F0D5B307EED5638D9BB2002B00F0A4804E
:1004F000616A236811F8010B228D9862638D013ABD
:100500006162013B22859BB26385DBE77307E1D51E
:10051000638D9BB26BB12268636A526A1A70638DF5
:10052000616A228D013B0131013A9BB261622285F1
:100530006385638D17F5803F9BB2C3D0002BC1D17B
:100540002046FFF753FEBDE723682022664819685E
:10055000DA6194F8412094F841201A6822F0FE02F2
:100560001A605A6842F400425A605A6802405A605F
:100570009A69920701D500229A629A69D00703D43A
:100580009A6942F001029A614A044DD5A26B1AB1F0
:1005900011684A6892B2628569074BD55A6A25F09C
:1005A0000409636A1A70636A01336362238D002B46
:1005B00052D1638D9BB21BB1636C43F0040363643F
:1005C0000023236384F84230D4F844806363B8F195
:1005D000000F58D1E36ADFF814914B4531D194F8FC
:1005E0004130202384F8408084F841304CE7236870
:1005F0001022DA61636C43F00403636437F08073A4
:100600007FF460AF616C2046FFF760FE5AE794F814
:100610004130226803F02803282B42D00823D361FD
:1006200050E70220BDE8F8830804B5D5E26B002A44
:10063000AED1B1E7A946BCE737F080737FF442AF93
:100640007EE72046FFF7D2FD2023C4F82C9084F8E3
:10065000408084F8413017E7013B2385638D013BDF
:100660009BB26385A5E71023D3619369980701D5F1
:10067000002393629369D9073FF562AF936943F012
:10068000010393615CE7616C2046FFF71FFE94F85D
:100690004130282B7FF4F8AE49462046FFF7E2FDB3
:1006A000F2E6E1689369022990699368D56811D1EF
:1006B000C3F3C21383EA104313F006030AD1A16CFB
:1006C0000131A164A16C02297FF4FCAE0821A3646E
:1006D000D161F7E6136823F0B8031360F2E6294608
:1006E0002046FFF7BFFDEDE600E800FE0000FFFF3B
:1006F000836B0022D3E90E0102650A6593F841205D
:10070000602A02D1202283F841207047026870B429
:10071000D4072DD597490B69896A03F03803102B4C
:1007200000F0F180182B00F0E9804368B3F5803FBA
:1007300000F05581002B00F05B81B3F5A02F8D4BAD
:10074000196800F02C8221F480311960196821F4B5
:1007500080211960884B41F2883C864C1D6804E07A
:100760001968491B614500F2408121688E03F7D565
:1007700091072DD57F490B69896A13F0380300F082
:10078000A680182B00F0A080C3687A4C002B00F0E4
:100790006381216821F019011943774B21601D689D
:1007A00004E01968491B022900F21F8121684907EA
:1007B000F7D5724B01691D6841F20303B3EB154F86
:1007C000636880F0958023F0FE4343EA0163636031
:1007D000D5064CD4150713D54369664C002B00F0A1
:1007E0009E80616F644B41F0010161671D6804E008
:1007F0001968491B022900F2F880616F8907F7D553
:10080000940613D583695B4C002B00F007812168A7
:10081000594B41F4805121601D6804E01968491B5F
:10082000022900F2E28021688904F7D5540700F11B
:10083000A780426AC2B14F490B6903F03803182BF5
:1008400000F07F81022A0A684B4B22F080720A6016
:1008500000F01881186804E01A68121A022A00F2DF
:10086000C4800A689201F7D4002070BC70474149E7
:100870000B69896A03F03803082B63D0182B5DD00D
:10088000C3693C4C002B00F0D88021683A4B41F002
:10089000800121601D6804E01968491B022900F2EB
:1008A000A4802168C905F7D5344B056A196841F25F
:1008B0000303B3EB114FC0F09081636823F0F8435A
:1008C00043EA8563636085E78D077FF45DAF294B5D
:1008D0001B685C0701D5C368F3B1284C41F20303E0
:1008E00001692468B3EB144F224C6368FFF46BAFCB
:1008F00023F47C3343EA0133636069E701F00301C9
:1009000002297FF412AF1B4B1B689B037FF530AFAE
:100910004368002B7FF42CAF012070BC7047616FDF
:10092000154B21F0010161671D6803E01968491B3F
:1009300002295AD8616F8E07F8D461E701F00301EC
:1009400001299DD10B4B1B68DC0502D5C369802BA7
:10095000E2D10A4941F20303046A0968B3EB114F7B
:100960000449C0F088804B6823F0F84343EA84636D
:100970004B602FE700440258E02A00240010005C7E
:100980009C499D4B0A6842F480720A601C6803E02F
:100990001A68121B642A28D80A68D505F8D5826817
:1009A000012A00F02181002A00F00181052A934AE2
:1009B000116F00F0278121F001011167116F21F003
:1009C000040111671D6841F288348C4903E01A68FC
:1009D000521BA24209D80A6F9207F8D529E7874926
:1009E0000B6843F480330B60B4E6032070BC70479F
:1009F000824C41F28835804B216821F4803121609E
:100A0000216821F4802121601E6803E01968891B98
:100A1000A942EAD821688903F8D4A9E62168764B6F
:100A200021F4805121601D6803E01968491B0229E7
:100A3000DBD821688E04F8D4F8E621686E4B21F0EB
:100A4000800121601D6803E01968491B0229CCD888
:100A50002168CE05F8D4BDE62168674B21F001017D
:100A600021601D6803E01968491B0229BDD821686F
:100A70004E07F8D4ACE6CB6823F07C5343EA04631A
:100A8000CB60A7E61C6803E01A68121B022AACD8E8
:100A90000A689501F8D48C6A594A2240846A224334
:100AA000C46A42EA04128A62D0E90D24013A013C88
:100AB0005202240492B204F4FE042243046B013C6B
:100AC000C4F308042243C46B013C240604F0FE4432
:100AD00022430A63CA6A22F00102CA624A6B846C2A
:100AE0006FF3CF0242EAC4024A63CA6A046C22F07E
:100AF0000C022243414CCA62CA6A406C22F00202D4
:100B00000243CA62CA6A42F48032CA62CA6A42F4C2
:100B10000032CA62CA6A42F48022CA62CA6A42F0D9
:100B20000102CA620A6842F080720A60196804E031
:100B30001A68521A022A3FF658AF22689001F7D578
:100B400092E6012A8C6A0B6B3FF4E6AE04F00302D6
:100B5000816A8A427FF4E0AEC4F30514C26A94420B
:100B60007FF4DAAE026BC3F30801013A91427FF4DD
:100B7000D3AE426BC3F34621013A91427FF4CCAE2F
:100B8000826BC3F30641013A91427FF4C5AEC26B5A
:100B9000C3F30663013A981A18BF0120BDE641F479
:100BA00080211960196841F480311960D2E5134938
:100BB00041F288350A6F22F001020A670A6F22F0BB
:100BC00004020A671C6804E01A68121BAA423FF676
:100BD0000CAF0A6F9607F7D42BE6E36823F07C533B
:100BE00043EA0563E360F5E504490A6F42F0010258
:100BF0000A67E7E600480258E02A00240044025849
:100C00000CFCFFFF41F004011167116F41F001017D
:100C10001167D7E6334B30B4996A9C6ADD6A14F4E5
:100C20007C7F5A6BC4F3051036D0C2F3CC0205F0BA
:100C3000010501F0030107EE900A05FB02F201290C
:100C4000B8EEE77A06EE902AFAEEE96A02D00229B7
:100C500042D019B3DFED247A87EE876A1B6BC3F3AA
:100C6000080307EE903AF7EE005AF8EEE77A77EECF
:100C7000A67A77EEA57A67EE867A1A4B1B6BC3F3DA
:100C80004623013307EE103AF8EEC76A87EEA67ADC
:100C9000FCEEC77A17EE900A30BC70471A689206CD
:100CA0001DD51968F7EE005A104A1B6BC1F3C1013C
:100CB000C3F30803CA4007EE903A06EE102AF8EE96
:100CC000E77AB8EEC66A77EEA66AC6EE077A36EE1F
:100CD000A57A67EE877AD0E7DFED057ABCE7DFED2E
:100CE000057AB9E7004402580024744A0090D00302
:100CF0000024F44A0024744CF0B5344AB0F1804F1B
:100D0000334CA0EB02020368A0EB040E4F69B2FA69
:100D100082F28E68BEFA8EFE0D684FEA52124FEADA
:100D20005E1E20D0FAB9DFF8B4C0604532D00CF5B1
:100D3000806C60452ED00CF5806C604513D0BEF100
:100D4000000F10D1234C244A904218BFA04225D056
:100D500002F58062904221D023F080033B43036080
:100D6000C662856213E04C6823F070032343CC68AD
:100D700023F44073234323F080033B430360C662A4
:100D8000856212B9BEF1000F12D00B690363012313
:100D90004361F0BD23F070034A681343CA6823F42B
:100DA0004073134323F080033B430360C6628562B4
:100DB000084A094B984218BF9042E6D003F5806379
:100DC0009842E2D001234361F0BD00BF0000014022
:100DD0000004014000400140004401400004004084
:100DE000836ADA0710B406D50168C46A4A6822F437
:100DF000003222434A609C0706D50168046B4A68AA
:100E000022F4803222434A60590706D50168446BB8
:100E10004A6822F4802222434A601A0706D50168F4
:100E2000846B4A6822F4004222434A60DC0606D5FD
:100E30000168C46B8A6822F4805222438A60990652
:100E400006D50168046C8A6822F4005222438A6045
:100E50005A060AD50168446C4A68B4F5801F22F42A
:100E6000801242EA04024A600BD01B0606D50268D3
:100E7000C16C536823F400230B4353605DF8044BAB
:100E800070474A68846C22F4C00222434A60ECE74F
:100E90000022836BA3F85E20A3F85620704700BFA2
:100EA000036942681F2B70B430D9A3F120052021BB
:100EB0005468A940214227D08169087C022835D096
:100EC00048681F2BC9681B4D4E680169C1F3032494
:100ED000194951F8244015F804C0056856F80C402B
:100EE00024F0010446F80C40407901EB4001088CE5
:100EF000E96800F4F05021EA0001E96010D9A3F19B
:100F0000200120238B40D36070BC704720211468DF
:100F100099402142F8D08169087C0228D0D105E0AF
:100F2000202101FA03F370BC93607047002008741D
:100F3000C6E700BFB07E0B08007D0B08436BDA6983
:100F40002DE9F0419706044613D5586AE36AC0B20A
:100F5000002B79D0216B9847636B1A6822F480725A
:100F60001A609A6822F001029A609A6942F00802B7
:100F70009A61DA69D60701D501221A62DA69950702
:100F800001D502221A62DA69500701D504221A62D9
:100F9000DA69110701D508221A62DA69120612D538
:100FA000D4F8B420212A0ED0D4E909128A4257D0AD
:100FB000A169895C0132C9B299622169B2FBF1F081
:100FC00001FB1022A262DA69570601D4BDE8F08164
:100FD000DA6940F60F0C1D6804F1340012EA0C0FB8
:100FE000996823D0724E0E4042D1724F3D4240F07C
:100FF000CD80D60202D54F0200F1D080160606D56C
:1010000001F4000105F080060E4340F0BA8051065D
:10101000DCD56A06DAD51A682020002122F04002C9
:101020001A60C4F8B400C4F8A410CFE79606E0D55F
:1010300005F0200601F080573E43DAD0D4F8A03006
:10104000002B40F08E80C1E7E3696269D054E36908
:10105000E2680133B3FBF2F102FB1133E3617BE79A
:101060000022A4F88A201A6822F080021A60AAE7F7
:10107000D70709D5EF0507D501271F62D4F8BC7043
:1010800047F00107C4F8BC7097076DD4570709D51E
:10109000CF0707D504271F62D4F8BC7047F00207BA
:1010A000C4F8BC7017070BD505F02007374307D0ED
:1010B00008261E62D4F8BC6046F00806C4F8BC607E
:1010C00017050AD56E0108D54FF400661E62D4F8E4
:1010D000BC6046F02006C4F8BC60D4F8BC60002EAA
:1010E0003FF474AF92060AD505F0200501F0805157
:1010F0000D4304D0D4F8A0200AB19047636BD4F814
:10110000BC109A6801F0280102F040020A434CD05A
:1011100019682020284A21F49071196099680A40C2
:1011200000219A60C4F8B8009A68C4F8A010570665
:101130007FF54CAF9A68D4F8AC0022F040029A6078
:1011400000283FF443AF90F835201C4B022A03657A
:1011500028D1FEF78BFF00283FF438AFD4F8AC005D
:10116000036DBDE8F0411847CF079BD502271F62EA
:10117000D4F8BC7047F00407C4F8BC70570791D589
:1011800088E7D4F8A430002BEBD11FE7D70789D527
:10119000EF053FF571AF970784D477E74FF48012DE
:1011A0001A6213E780224265DBE7C4F8BC200DE732
:1011B0000100001020010004FEFFFFEF910E040863
:1011C000D0E907239A423CBFC1685218D01A704731
:1011D000D0E9092300699A4238BF12180138D31A9E
:1011E000C01A7047D0E90902101AB0FA80F040091D
:1011F000704700BF016A034640694A1C405CD968D9
:101200008A4228BF00221A62704700BF436A82697F
:1012100010B4D154436A416B046901330A68A34294
:1012200028BF00235DF8044B42F0800243620A604D
:10123000704700BF436BD86910F0100002D0102235
:1012400001201A62704700BF704700BF704700BF9F
:1012500001207047014B5868704700BFE02A002406
:10126000044B93F8A402A0F10300B0FA80F0400907
:10127000704700BFE02A0024012380F849307047FE
:10128000064AD2E9B732581E9342A0EB02008CBF47
:101290000023012300EB0330704700BFE02A002445
:1012A00001F00F01D0F8D022C1EBC10102EB8102A5
:1012B000D0E9AE30D2F8142203F5037110B5C4683A
:1012C000D3F80402C3F80C22A047002010BD00BFD1
:1012D000D0F8BC3283B110B5D0F8B84294F800020F
:1012E000FF2807D09B68214694F801229847FF23E6
:1012F00084F80032002010BD0020704703464322CE
:1013000001481A80704700BF0000002403464322B2
:1013100001481A80704700BF44000024034643225E
:1013200001481A80704700BF8800002403460A2243
:1013300001481A80704700BFCC000024064B4FF0D4
:10134000120C064AA3F11400526DA1F800C0022A43
:1013500018BF1846704700BFEC000024004000583A
:10136000042301480B807047000100241D48D0F879
:101370000038D0F8082830B59B184FF01A040C80BC
:1013800001D1194830BD184A0024D0F8040802F1F0
:10139000100511464FEA137EB3F1204FCC7001F1D6
:1013A00002010EF1370C38BF0EF1300C8D424FEABE
:1013B000031381F800C0EDD102F108050024010FEC
:1013C000B0F1204FD47402F1020201F1370338BFAB
:1013D00001F1300395424FEA00101374EFD1024837
:1013E00030BD00BF00E0F11F040100240020704761
:1013F000212808B527D0222818D0202814D199B147
:10140000072A11D1184A194B0868B1F804C0D2F85C
:10141000E4228979C3F82001A3F824C183F82611B6
:1014200012B1014600209047002008BD0029FBD0E2
:10143000022AF9D10C4BD3F8E832002BF4D00988FA
:1014400000209847F0E70029EED0072AECD1074B9F
:10145000D3F82001B3F8242193F826310860002046
:101460008A808B7108BD00BFE02A002400000024A0
:101470000346202201481A80704700BF280100243B
:101480000346202201481A80704700BF480100240B
:101490000346202201481A80704700BF68010024DB
:1014A00003460A2201481A80704700BF88010024C1
:1014B000034B0020D3F80825B3F80C35936170472F
:1014C000E02A0024044B4FF4007C0020D3F8B83607
:1014D000A2F800C00B607047E02A0024002070478B
:1014E000012070470120704700207047304B0021D9
:1014F000304AD3F894313048A2FB032310B5DB0CFB
:101500002E4C82B0013BC4F8F816C4F8F01642F233
:101510000F7194F82527C4F8E806C4F8F416C4F847
:10152000EC36002A3FD002232549234884F825378A
:10153000FFF7E2FB234B01220621372084F8252701
:10154000D3F8E82042F02002C3F8E820D3F8E830CE
:1015500003F020030193019B67F0A4FAD4F8E83666
:101560004FF400001849194A4860D96841F0010158
:10157000D96099680A40062A06D0B2F5803F03D0A8
:101580001A6842F001021A600020D4F8C0321049F3
:10159000104AC3F81002C4F8E802C4F8E402C3E930
:1015A000812102B010BD02F0FF0084F82407BAE7E1
:1015B0000000002483DE1B4300140040E02A0024C6
:1015C000CC3100240044025800E100E00700010093
:1015D000684E0024683E0024F8B51C4F03460846B8
:1015E000D7F8C022D2F814120029FBD160B3191821
:1015F000DFF85CC0013B0139D7E9B75213F8016F3E
:10160000541C0CF80260C4F30B02AA42A5EB0204BE
:1016100034BF0026012604EB0634012C10D1C7F894
:10162000E02210F04FF804460D4610F04BF8001B76
:1016300061EB0501B0F57A7F71F10001F5D3F0E7B8
:101640009942DBD1C7F8E022F8BD00BFE02A0024B0
:10165000684E0024F8B50C4E96F8A432032B00D047
:10166000F8BD0D461446D6F8287708E0FFF7B4FF1A
:10167000D6F82837241A0544DB1B322BF0D8002C6F
:1016800021462846F2DCF8BDE02A0024F8B590F89F
:1016900048305D1C0344EDB280F8485083F83410A4
:1016A00090F8493053B1132D07D9002380F8483002
:1016B0000E4F97F8A432032B05D0F8BD80F84830C0
:1016C000002DF5D1F8BDD7F8286700F1340429467C
:1016D0002046FFF781FFD7F828372D1A04449B1BBB
:1016E000322BEAD8002DF2D1F8BD00BFE02A002449
:1016F000F8B5002390F84850A0F8483005B9F8BD77
:101700000B4F97F8A432032BF9D1D7F8286700F1D3
:10171000340429462046FFF75FFFD7F828372D1AF3
:1017200004449B1B322BEAD8002DF2D1F8BD00BF38
:10173000E02A00242DE9F047046982B0C3681C4008
:1017400046D0814688464FF0004501F1500701F12F
:101750003806B4FA84F325FA03F21B3BD243144053
:10176000C9F81020B8F1000F5FD0042B2ED8DFE8A5
:1017700003F052483D320300D8F81030D9F82CA0BD
:1017800033B19B6823B11FFA8AF108F1080098472A
:10179000D8F8283033B19B6823B11FFA8AF108F1D9
:1017A00020009847D8F8403033B19B6823B11FFA26
:1017B0008AF108F138009847D8F8583033B19B685F
:1017C00023B11FFA8AF108F150009847002CC0D1CC
:1017D00002B0BDE8F087D8F8103008F10800D9F859
:1017E00034105B689847002CB3D1F1E7D8F8283063
:1017F00008F12000D9F838105B689847002CA8D170
:10180000E6E7D8F840303046D9F83C105B68984796
:10181000002C9ED1DCE7D8F858303846D9F8401073
:101820005B689847002C94D1D2E7042B07D8DFE8F7
:1018300003F01903140F0A00D9F83C300193019BFF
:10184000002C86D1C4E7D9F82C300193019BF7E72F
:10185000D9F834300193019BF2E7D9F8383001937D
:10186000019BEDE7D9F840300193019BE8E700BF09
:10187000214938B5D1F82C375BB14A68002AFBD032
:10188000013A13F8014B4A60C1F82C3712B12046D7
:1018900038BDFEE7D1F8C032002BF8D0087ED3F86F
:1018A0000452D1F8D832A8B91A690121C3F830021C
:1018B0004FF40070012AA3F81812C3F8245203F55C
:1018C0000671C3F82C0214D01868D2B26BF026FD52
:1018D000204638BDC3F8302201211A694020A3F800
:1018E000181203F50671012AC3F82452C3F82C021A
:1018F000EAD1C3F82852E7E7E02A0024D0F8B8225A
:10190000002A3DD001EB810300EB830370B5DC6955
:10191000D0F8D05224B90023C2F81432002070BD90
:10192000C1EBC10C05EB8C0CDCF84460B4FBF6FC9D
:1019300006FB1C44002CEED101F07F02DC6101F0BB
:101940000F031C2102EB820201FB035100EB82001A
:10195000C3EBC3023C31C46105EB82000122846405
:1019600080F83C3080F83D20C0E914442A69012AFF
:10197000D2B208BFC464286823B96BF0DFFDCDE79D
:10198000022070476BF0CAFCC8E700BF174B0A681B
:10199000C3F82C075A600AB100207047D3F8C01270
:1019A0000029F9D010B5187ED1F80442D3F8D83206
:1019B000A0B140200121C3F82442C3E98B021A6977
:1019C0001868012AA3F81812D2B203F5067108BFED
:1019D000C3F828426BF0A2FC002010BD4FF4007247
:1019E0000121C3F82442C3E98B20E8E7E02A002460
:1019F00070B50022D0F8C84205461C4B84F8381256
:101A00000D2684F8082204F50B70C4F82C3204F576
:101A10000374D5F8D0322E631A6740F2011203F135
:101A20005801DE66A3F858201A695866012AD2B216
:101A300008BF986618686BF071FCD5F8D0321F208B
:101A400000220121C3F82442C3E98B021A69A3F8DA
:101A500018128A421868D2B203F5067108BFC3F89B
:101A60002842BDE870406BF059BC00BF555342534B
:101A70002DE9F043177883B0164605468846D0F81E
:101A8000C8425A2F5CD8DFE817F0C5005B005B0046
:101A900076005B005B005B005B005B005B005B0053
:101AA0005B005B005B005B005B005B005B00A70012
:101AB0005B005B005B005B005B005B005B00600148
:101AC00071005B005B0071005B005B005B005B0012
:101AD00010025B0073015B005B0097015B00070174
:101AE0005B005B005B005B00D5005B005B005B00A4
:101AF0005B005B005B005B005B005B005B005B000E
:101B00005B005B005B005B005B005B005B005B00FD
:101B10005B005B005B005B005B005B005B005B00ED
:101B20005B005B005B005B005B005B005B005B00DD
:101B30005B005B005B005B005B005B005B00F30035
:101B400094F85D22002105254FF0FF30531C04EB73
:101B5000C202DBB282F83C5282F84012042B08BF6A
:101B60000B4684F85D3203B0BDE8F0830023A4F88F
:101B70000A320020F7E77021002294F85C322170CD
:101B80000C21C4F80520E17194F85D12C4F801201D
:101B90009942C4F80920C4F80D20627413D004EBF4
:101BA000C301013391F83C02DBB2A070042B91F821
:101BB0004102207391F8401218BF84F85C326173BF
:101BC00008BF84F85C221223A4F80A323379122B5E
:101BD000CFD8A4F80A32CCE75378DB0700F189812B
:101BE000D0F8CC3201EBC1011279D86900EB810049
:101BF00003790533934228BF1346A4F80A32002B19
:101C0000B7D0C218234412F8011D824203F8011D07
:101C1000F9D1AEE7D4F81462002E40F01582D5F861
:101C2000CC3208469B689847002840F05B82A4F8B5
:101C30000A029EE7537813F0020340F0E081D4F8E3
:101C40006012D4E9992002448A42C2D994F85D22F4
:101C5000052011460132D2B204EBC101042A81F8F9
:101C60003C0281F8403200F0FE8184F85D2280E77A
:101C7000C94B082203CBA4F80A22206040466160C9
:101C8000D5F8CC32DB68984700283FF472AFE37890
:101C900063F07F03E3706CE794F80892B9F1000FEA
:101CA00040F0488194F91832002BC0F26C82D0F8D1
:101CB000CC3208469B6898470746002840F04F8280
:101CC000D5F8CC324046DB6898470146002840F002
:101CD0001C81D6F80220D5F8C80212BAC4F86422D2
:101CE000B6F80730D0F860625BBA9BB21A44C4F809
:101CF0006832B24200F22282B4F85E2202FB03F3A1
:101D0000D4F81422934240F06A81B3F5007F4FF07B
:101D1000010028BF4FF4007384F808021A46D5F872
:101D2000D032C3F82C221A69C3F8301203F50671B9
:101D30008242A3F81802D2B21868C3F8244208BF3E
:101D4000C3F828426BF0EAFA13E70023082208469A
:101D500023606360D5F8CC32A4F80A22DB68984788
:101D600000283FF406AFA37863F07F03A37000E779
:101D7000D0F8CC3204F25E22084604F518715B6894
:101D80009847002840F07281D4F860320822A08081
:101D9000013BA4F80A22190E1A0C61F30700190A74
:101DA00062F30F20B4F85E2261F3174052BA63F376
:101DB0001F60E2802060DCE694F80872002F40F09B
:101DC000B78094F91832002B80F2A781D0F8CC327A
:101DD00008469B689847002840F09780D6F8022074
:101DE00012BAC4F86422B6F80730D5F8C8625BBAF4
:101DF000D6F860129BB21A44C4F868328A4200F2E4
:101E00004981B4F85E2202FB03F3022284F808221F
:101E1000D4F814229A4240F03D814FF40073D5F873
:101E2000CC2240463146A4F80A32B6F85E32D6F8E3
:101E30006842176903FB04F4D6F86422B4F5007F06
:101E400028BF4FF40074B4FBF3F39BB2B8470028EB
:101E5000C0F23681D5F8D03200222C6303F158014C
:101E600018685E66C3E91B4240F20112A3F85820CD
:101E70001A69012AD2B208BF9E666BF04FFAB6F813
:101E80005E22B4FBF2F2D6E9991311449B1AD6F8FC
:101E90003422121BC6E99913C6F83422002B7FF4B2
:101EA00068AE032386F8083263E6002608460DF183
:101EB000020201A926606660A660D5F8CC325B6894
:101EC0009847002840F0AD8008200223BDF802208A
:101ED0000C21E070238152BA019BA4F80A12013B45
:101EE0006281180EE371190C1A0A20716171A271D6
:101EF0003FE62A4B0722986A998D93F82E30A180ED
:101F0000A4F80A222060A37133E6D5F8C822022083
:101F100092F85D3202EBC3010133DBB281F83C027F
:101F200081F84072042B00F0F58082F85D3220E6E3
:101F3000264672E7B4F85E320846D4F86862214655
:101F4000D5F8CC2203FB06F65769B6F5007FD4F826
:101F5000642228BF4FF40076B6FBF3F39BB2B84778
:101F60000028C0F22281B4F85E32D4F86422D4F89A
:101F70006812B6FBF3F00244091AC4F86422D4F8DC
:101F80003422C4F86812921BC4F8342241B928469E
:101F9000FFF72EFDEDE500BF307D0B08007D0B083F
:101FA000D5F8D00201FB03F301220021B3F5007F35
:101FB000C0F82442A0F81822026928BF4FF4007329
:101FC000C0F8301200F50671012AC0F82C32D2B2E6
:101FD00008BFC0F8284200686BF0A0F9C9E590F886
:101FE0005D3205245A1C00EBC303D2B283F83C4295
:101FF00083F84012042A60D080F85D22B9E594F895
:102000005D32052000215A1C04EBC303D2B283F8D1
:102010003C0283F84012042A7FF427AE84F85D1254
:10202000A7E5D5F8C822022092F85D3202EBC30181
:102030000133DBB281F83C0281F84062042B7FF46B
:1020400074AF82F85D6294E594F85D32052000215A
:102050001A460133DBB204EBC202042B82F83C02C5
:1020600082F84012DAD084F85D3282E5D5F8C822D1
:102070000224002192F85D3202EBC3000133DBB28F
:1020800080F83C4280F84012042B7FF44EAF82F877
:102090005D126EE596F85D3205211A460133DBB21A
:1020A00006EBC202042B82F83C1282F8400214BFF5
:1020B00086F85D3286F85D025BE580F85D1258E5D2
:1020C000D5F8C8220424002192F85D3202EBC30047
:1020D0000133DBB280F83C4280F84012A3427FF427
:1020E00024AFD4E7D5F8C8220520022592F85D3246
:1020F00092F85D12013302EBC101DBB281F840625C
:10210000042B08BF3B4681F83C5282F85D3284F8CC
:1021100008022EE582F85D722BE594F85D32052108
:102120001A460133DBB204EBC202042B82F83C12E4
:1021300082F8407297D184F85D721AE590F85D32AA
:1021400005241A460133DBB200EBC202042B82F8ED
:102150003C4282F84012B0D080F85D3209E5D5F8F3
:10216000C822022092F85D3219460133DBB202EB3D
:10217000C101042B81F83C0281F840927FF4D5AE76
:1021800082F85D92F5E494F85D3205211A46013338
:10219000DBB204EBC202042B82F83C1282F84092BC
:1021A0007FF461AF84F85D92E3E4D5F8C82204249B
:1021B000002092F85D3219460133DBB202EBC10117
:1021C000A34281F83C4281F840027FF4AEAE82F82F
:1021D0005D02CEE4D0F8C81210B591F80832022B97
:1021E00007D0033B012B02D80021FFF701FC0020A0
:1021F00010BD01F21B2291F819120446FFF738FCBA
:102200000028F4DA01212046FFF7F2FBEFE700BFD8
:1022100070B5037C0446D0F8D002002B45D14FF4B2
:102220000073022281216AF079FF01214FF40073CB
:102230000222D4F8D002E1626AF070FF012608237E
:1022400003228221D4F8D002C4F86C616AF066FFE0
:102250004FF40770266474F029FB0546C4F8B802F1
:10226000002842D0D4F8BC321B6898470022217C59
:10227000C5F81422D4F8D032D5F80402C5F81822D3
:1022800009B3C3F8302240241A6903F50671C3F874
:102290002402012AA3F81862C3F82C4222D018683D
:1022A000D2B26BF03BF8002070BD402302228121A6
:1022B0006AF034FF012140230222D4F8D002E16207
:1022C0006AF02CFFBAE71A694FF40074C3F83012B1
:1022D00003F50671B242C3F82402A3F81862C3F8EA
:1022E0002C42DCD1C3F82802D9E7304670BD00BFCC
:1022F00038B5037C0446D0F8D002002B52D14FF4FD
:102300000073022201216AF009FF01204FF40073DB
:10231000C4F86C010222D4F8D00281216AF0FEFEDA
:10232000244B0020D4F8CC22012103F5E865E162BA
:10233000C4F8C852A3F84809A3F89C091368984741
:10234000D4F8D04294F8BC332068012B12D010226C
:10235000194B0261013B02D00269D106FAD4602216
:10236000154B0261013B02D002699206FAD40023A8
:1023700084F8BC330022114B1F2504F50671C4F804
:1023800030220122C4F82C52A4F818222269C4F881
:102390002432012AD2B208BFC4F828326AF0BEFF44
:1023A000002038BD4023022201216AF0B7FE01203F
:1023B0004023ADE7E02A0024410D03002C34002423
:1023C00070B5D0F8D05240F20112044695F8BC33F3
:1023D000A5F85820012B09D001222868114685F85C
:1023E000BC236BF087F9002385F8BC33D4F8D052B6
:1023F00000260121E66295F8BC33A5F818128B423D
:1024000007D03246286885F8BC136BF073F985F85D
:10241000BC63D4F8D05200264FF48172C4F86C61CA
:1024200095F8BC33A5F87420012B08D001220221B5
:10243000286885F8BC236BF05DF985F8BC6300253E
:10244000D4F8B83225644BB1D4F8BC325B689847F5
:10245000D4F8B80274F032FAC4F8B852002070BD53
:1024600070B5D0F8D0520121044695F8BC33A5F8D8
:1024700018128B4208D00022286885F8BC136BF034
:1024800039F9002385F8BC33D4F8D052002640F245
:102490000112C4F86C6195F8BC33A5F85820012BE3
:1024A00008D001222868114685F8BC236BF022F978
:1024B00085F8BC630025D4F8C802E56274F0FEF923
:1024C0002846C4F8C85270BD2DE9F0410B7882B09F
:1024D00000260D4613F060070446D0F8B8828DF848
:1024E0000560ADF8066035D0202F0DD08021D4F8DE
:1024F000D0026AF0B9FE0021D4F8D0026AF0B4FE2E
:10250000022002B0BDE8F081CA884878002A37D09E
:102510001B064FD5D4F8BC3241469B68984702232E
:10252000EA884FF48071C4F89432D4F8D032C4E908
:1025300007221A651A69998703F13C01012AC3F839
:1025400048805E6501D1C3F84C80D2B218686AF049
:10255000F5FF19E04D780A2D1DD00B2D16D0002D5A
:10256000C4D190F89C32D0F8D002032B55D08021F2
:102570006AF07AFE2946D4F8D0026AF075FEBFE709
:10258000D4F8BC329B6898470020BAE790F89C3298
:10259000032BF9D0AAE790F89C32D0F8D002032B95
:1025A00023D080216AF060FE3946D4F8D0026AF068
:1025B0005BFEA5E7032388F8000288F80122C4F82F
:1025C0009432D4F8D032C4E95722C3F8102203F56C
:1025D000FE711A69C3F80882012AC3F81462A3F8CD
:1025E000FC6108BFC3F80C82AFE7022201234FF45D
:1025F0008071C4F894220269E3612362012A0365B1
:102600000DF10503818700F13C018364476516D015
:10261000D2B200686AF092FFB6E70223026900F1C5
:102620003C01C4F89432012AC4E9073303654FF42E
:102630008073456583870DF106038364E8D1C36425
:10264000E6E700BF2DE9F041002382B00446D0F850
:10265000C852ADF806300B7813F0600239D0202A4A
:102660000DD08021D4F8D0026AF0FEFD0021D4F80C
:10267000D0026AF0F9FD022002B0BDE8F0814A788C
:10268000FE2A00F0DD80FF2AEBD14A88002AE8D13B
:10269000CA88002AE5D11B06E3D44FF4807305F500
:1026A00003700121A5F80832D4F8D0321F24C3E901
:1026B0008B421A69C3F82402012AA3F81812D2B275
:1026C00003F5067108BFC3F8280218686AF026FEF1
:1026D00025E04B780B2BC4D801A252F823F000BFA1
:1026E0000328040843270408632604086326040813
:1026F0006326040863260408632604086326040886
:102700006326040863260408232704081127040805
:1027100090F89C32032BA4D18B78C5F804320020AA
:10272000AAE790F89C32D0F8D002032B00F0B280D8
:1027300080216AF099FD0021D4F8D0026AF094FD5E
:1027400099E7D0F8D0628F8896F8BC3391F90420CD
:1027500007F00F07012B00F006810123002A3168E2
:1027600086F8BC33C0F2AC801023884A0B61013A72
:1027700000F000810B6913F01003F8D186F8BC3328
:10278000C7EBC7039B00C7EBC7024FF0000803F578
:10279000FE7306EB8202F11882F8FC7182F8FD816B
:1027A00096F8BC23012A09D00122306886F8BC23A0
:1027B0004A78F15C6AF09EFF86F8BC8307EB8707D6
:1027C0000023D4F8D00204EB8707C7F85831237CE4
:1027D000002B40F0BC804FF40073022201216AF00C
:1027E0009DFC0123C4F86C3195F80932022B96D177
:1027F0008121D4F8D0026AF037FD002385F8093230
:102800008DE790F89C32D0F8D002032B90D10223B0
:10281000002200F13C01C4F89432C4E90733426558
:102820000DF10604026903654FF48073012A846484
:10283000838700D1C464D2B200686AF07FFE6EE77D
:102840004E88002E7FF40DAFCF88012F7FF409AFA3
:102850001A067FF506AFD0F8CC3205F500759B69F6
:10286000984702222860D4F8D032C4F894224FF45A
:10287000807203F13C011868C4E907779A871A69E6
:102880009D64012A1F65D2B25E6508BFDD646AF0EF
:1028900055FE44E70222012305F501754FF48071CE
:1028A000C4F894220022C4E90733C0E91432026953
:1028B000818700F13C019A42856408BFC564BAE78C
:1028C000BB01324A43F020030B61013A58D00B6937
:1028D00013F02003F9D186F8BC33C7EBC7039B0084
:1028E000C7EBC70201213C3306EB8202F01882F8E5
:1028F0003C7082F83D1096F8BC238A4209D086F8D5
:10290000BC134278F15C30686AF0F4FE002386F86C
:10291000BC3307EB87070023D4F8D00204EB87070A
:10292000BB61237CCBB94FF40073022281216AF092
:10293000F5FB0121E16295F80932022B3FF458AF13
:10294000012B3FF4ECAE2046FFF752F8E7E64023B8
:10295000022201216AF0E2FB43E7402302228121A7
:102960006AF0DCFBE5E7C7EBC703002A4FEA830305
:10297000B6DB08E7C7EBC70386F8BC239B0002E77A
:10298000C7EBC70386F8BC239B00A9E7410D0300F2
:1029900038B5D0F8C8520446D0F8D00295F81832AD
:1029A00013B9D5F814323BB981216AF05DFC95F872
:1029B0000932022B0ED038BD95F80932002BF3D125
:1029C00001216AF051FCD4F8D0028121BDE83840E1
:1029D0006AF04ABCD4F8D0321F20002205F50375F6
:1029E0000121C3F82452A3F8181203F50671C3E9B4
:1029F0008B021A691868012AD2B208BFC3F828529C
:102A0000BDE838406AF08ABC70B5D0F8C8420546C7
:102A100094F8086286B1012E01D0002070BD04F246
:102A20001B2294F81912FFF723F80028F5DA012188
:102A30002846FEF7DDFFF0E7D4F81432D4F8102270
:102A4000C4F83432D0F8D032C4F83022D3F830325F
:102A50001F2B08D1324BD4F80C229A4203D194F8A0
:102A60001912012918D994F85D320021052628464B
:102A700004EBC3020133DBB282F83C6282F84012FD
:102A80000222042B84F8092208BF0B4684F85D3229
:102A9000FFF77EFF002070BD94F81A32013B0F2B28
:102AA000E1D804F21B22FEF7E3FF002894F8083275
:102AB0002BDB013B022BB0D9B4F80A1259B3D5F87D
:102AC000C832042283F80822D3F8342283F838620B
:102AD000521AC3F83422D3F81432994228BF194647
:102AE000D5F8D0321A692963012AD96640F201115A
:102AF000D2B21868A3F8581003F158015C661E673B
:102B000008BF9C666AF00AFC87E7052B8FD0284631
:102B1000FFF73EFF81E72846FEF76AFF7DE700BF2B
:102B200055534243024808B565F052FD014808BDBF
:102B3000542A0C088C34002408B520B9044865F0E8
:102B400047FD044808BD044865F042FD014808BD42
:102B50005C2A0C088C340024802A0C08024808B532
:102B600065F036FD014808BDA42A0C088C34002409
:102B7000024808B565F02CFD014808BDB02A0C08D4
:102B80008C3400242DE9F843DDF820800F461646EA
:102B90000021202204461D4673F058FFB8F1000FB3
:102BA0000CD0D8F80030B8F80A20E3811B0C23823F
:102BB000D8F804306282E3821B0C238338466BF022
:102BC00049FEF30619D4431EB8B107EB000C01E02F
:102BD000013B12D31CF801EDBEF12E0FF8D1C01A43
:102BE00003F10109421EB944032AA8BF0322082B9E
:102BF000A8BF082390461A4606E008280246B946B0
:102C00004FF00008A8BF08224FF020333946204675
:102C10002360636072F0F2FD164B04F10800424637
:102C200049462381837072F0E9FD611EE21D11F8AF
:102C300001CFACF16103ACF1200C192B98BF81F8E6
:102C400000C09142F3D104F10A0011F8013FA3F151
:102C50006102203B192A98BF0B708142F5D11823DD
:102C600065832D0CE6722373099BA582E361BDE8A1
:102C7000F88300BF202020002DE9F04FDFF8689492
:102C80000C4685B0B9F80C15D9F808050D04856116
:102C9000002B63D0154604F5FE7603EB020B1FE014
:102CA000002D69D0D9F8C436AB4200F0CC80D9F8F9
:102CB000C036AB4200F0FE80D9F8C836D9F8CC1641
:102CC000AB4250D88D42C0F07981691A204665F038
:102CD00031FC013504F5007406F500765D4539D008
:102CE000D9F8D026AA42DBD8AA1AD9F8E076D308B8
:102CF000396B02F0070802338B4202D3BA6B93425E
:102D00000BD939461846039365F0E4FB039B07464D
:102D1000002800F07381C9F8E0063A79002A40F0F3
:102D20002481D7F828A0BAF1000F00F060813A6B37
:102D3000013520464FF400719B1AFA6804F50074BF
:102D400006F5007608EBC3083B4602EB4822D04765
:102D50005D45C5D1D9F80805B9F80C158161002089
:102D600005B0BDE8F08F8D42AFD24FF40072002164
:102D7000204673F06BFEACE74FF400722946204604
:102D800073F064FE8023CC4A84F8BE310C2384F8AF
:102D9000C231D9F8C016D9F8B8369142C4F8C61174
:102DA000C4F8CA3100F30F81C44A013BC44F82FB0F
:102DB0000102C81787FB01C70A44C0EB6212C0EBCF
:102DC0002730C04F87FB02C7C2EB821C84F8C101C9
:102DD0008010A1EB0C01174420F03F0001310843A3
:102DE000D117C1EBE71184F8C0010A4484F8BF2170
:102DF000B14A934200F3F380B04AB14882FB031218
:102E0000D91780FB03701A44C1EB6212C1EB203169
:102E1000AC4880FB0270C2EB821784F8C5118910A0
:102E2000DB1B104421F03F0101331943D317C3EBDF
:102E3000E01384F8C4111A4484F8C3214AF65523D8
:102E4000A4F8FE3145E74FF0FF3300274FF4F0724E
:102E5000201D84F8EC31394684F8ED3184F8EE31E8
:102E600084F8EF315223237063706123A37084F8D8
:102E7000E7314123E37084F8E631722384F8E431CA
:102E800084F8E531D9F8D836C4F8E83173F0DEFDBE
:102E90005523C4F8F07184F8FE316FF05503C4F87F
:102EA000F471C4F8F87184F8FC7184F8FD7184F849
:102EB000FF310EE74FF400720021204673F0C6FD8B
:102EC000814B022203CB45F6EB032274227323804D
:102ED0009023A273A370F82384F82C200822C4F84E
:102EE00003006273C4F807106375D9F8C016D9F8E7
:102EF000B8365B1AD9F8C8162362D9F8CC365B1AF3
:102F00004AF6552163620023E372E3736377A37784
:102F1000E37784F82D3084F82E3084F82F3084F84D
:102F200031306A4BA3613E232377012384F830308C
:102F3000802384F84030664BC4F84230654B84F8F7
:102F40004620A4F8FE11644A03CBC4F84B1019883C
:102F5000C4F847009B78A4F84F1084F8513003CA96
:102F6000C4F85200C4F85610B3E64FF400720021C2
:102F7000204673F06BFD3B6CB8F1000F45D104F1B6
:102F8000200A002B00F081803B6B11225349204620
:102F9000CDE90088FFF7F6FD3B6C1A6C002A00F0C3
:102FA00081801B6B504611224D49CDE90088FFF707
:102FB000E9FD04F1400A4FF4E07871E0E91A204697
:102FC00065F0B8FA85E6FF22013B84F8C1214FF68F
:102FD000FF72A4F8BF21384A93427FF70DAFFF2359
:102FE00084F8C5314FF6FF73A4F8C33126E7514684
:102FF0004FF40072204673F029FD6AE6231F394A18
:1030000043F8042F9E42FBD163E6002B7F6C14BF74
:1030100002230123C3EB0813002F3FF45AAE013BF8
:10302000BF6C002B01DD002FF9D1A2464FF40078D0
:10303000002F3FF44EAE0AEB080303959A460BE0CF
:103040000025A8F12008CDE900E5FFF79BFDBF6C46
:10305000CFB1B8F11F0F16D93D7907F11C0E11221F
:1030600039683B6BAAEB0800002DE9D17A79A8F109
:1030700020083D6942F02102CDE900E5FFF782FD1D
:10308000BF6C002FE5D1039D23E6CDE900884346C0
:103090004FF4F0780822D9F8BC162046FFF772FDED
:1030A0007F6CC5E75046434611220D49CDE90088A3
:1030B000FFF768FD7DE700BFFF03FB008320088268
:1030C0009755454181808080C02A0C083F00FF0051
:1030D00029940E0DCC2A0C08D82A0C08783F0C082D
:1030E000C4400C08DEADBEEFE02A002470B5134DDD
:1030F000134AD5F89431A2FB03239B09013BB3F19A
:10310000807F01D3012070BD4FF0E0220D490024E3
:103110000F2853614FF0F003064681F823304FF03B
:10312000070394611361EDD801464FF0FF3065F05D
:10313000B9FC2046C5F8986170BD00BF00000024AE
:10314000D34D621000ED00E0034A013011681368AE
:103150005B1A8342FBD37047E02A002437490246BA
:1031600003688B4233D01831591AB1FA81F14909F9
:1031700069BB3348834240D01830834240D0183076
:10318000834236D0183083423DD01830834240D03D
:10319000183083422CD000F55670834237D029492D
:1031A0008B4233D018318B4236D018318B4236D017
:1031B00018318B4236D018318B4236D018318B42C1
:1031C00036D018318B4236D023F0FF0013E0DBB24B
:1031D0001D491E48103B10B41D4CA4FB03435DF871
:1031E000044B01EB131393F83810C2E91601704732
:1031F00016211848D1659065704710211348F9E7EA
:1032000016211248F6E706211248F3E70621124874
:10321000F0E710210F48EDE710210F48EAE71621EB
:103220000D48E7E700210D48E4E706210B48E1E7F8
:1032300010210A48DEE716210848DBE710000240AB
:103240004000024028040240007D0B0800000240BC
:10325000ABAAAAAA040002400004024004040240EF
:103260000C4A136903F03803102B0DD0182B09D02A
:1032700063B913689B060BD513680748C3F3C103F2
:10328000D8407047FDF7C6BC0448704704487047F3
:1032900001487047004402580090D00300127A00A1
:1032A00000093D00194A136903F03803102B10B5CB
:1032B00025D0182B09D023BB13689B0623D5136890
:1032C0001348C3F3C103D84001E0FDF7A3FC0F4945
:1032D000104A8B698969C3F303230F4C01F00F0176
:1032E00013440A4493F8401092F8403001F01F0252
:1032F00003F01F03D040C4F89401D84010BD074824
:10330000E5E70748E3E70248E1E700BF0044025869
:103310000090D003007D0B080000002400127A000A
:1033200000093D00474A70B4946A956AD66A15F45C
:103330007C3FC5F30533D16B5BD0C1F3CC01C6F341
:10334000001604F0030407EE903A06FB01F1012C8D
:10335000B8EEE77A06EE901AFAEEE96A03D0022C8C
:103360006AD0002C4AD0DFED387A87EE876A936BFB
:10337000C3F3080307EE903AF7EE005AF8EEE77A47
:1033800077EEA67A77EEA57A67EE867A2D4AB7EEC3
:10339000006A936BC3F3462307EE103AB8EEC77A80
:1033A00070BC37EE067AC7EE876AFCEEE66AC0EDBF
:1033B000006A936BC3F3064307EE103AB8EEC77A80
:1033C00037EE067AC7EE876AFCEEE66AC0ED016A60
:1033D000936BC3F3066306EE903AF8EEE66A76EE78
:1033E000866A87EEA67AFCEEC77A17EE903A83607B
:1033F000704770BCC0E900338360704713689B0658
:103400001DD51468F7EE005A936B1049C4F3C1023E
:10341000C3F30803D14007EE903A06EE101AF8EE17
:10342000E77AB8EEC66A77EEA66AC6EE077A36EE97
:10343000A57A67EE877AA9E7DFED057A95E7DFEDF4
:10344000057A92E7004402580024744A0090D003A1
:103450000024F44A0024744C474A70B4946A956A74
:10346000D66A15F07C7FC5F30553516C5BD0C1F370
:10347000CC01C6F3002604F0030407EE903A06FBE5
:1034800001F1012CB8EEE77A06EE901AFAEEE96A3D
:1034900003D0022C6AD0002C4AD0DFED387A87EEB8
:1034A000876A136CC3F3080307EE903AF7EE005AED
:1034B000F8EEE77A77EEA67A77EEA57A67EE867A67
:1034C0002D4AB7EE006A136CC3F3462307EE103A99
:1034D000B8EEC77A70BC37EE067AC7EE876AFCEEA4
:1034E000E66AC0ED006A136CC3F3064307EE103AB8
:1034F000B8EEC77A37EE067AC7EE876AFCEEE66A60
:10350000C0ED016A136CC3F3066306EE903AF8EE61
:10351000E66A76EE866A87EEA67AFCEEC77A17EE42
:10352000903A8360704770BCC0E900338360704795
:1035300013689B061DD51468F7EE005A136C1049EA
:10354000C4F3C102C3F30803D14007EE903A06EE7C
:10355000101AF8EEE77AB8EEC66A77EEA66AC6EEFB
:10356000077A36EEA57A67EE877AA9E7DFED057A66
:1035700095E7DFED057A92E7004402580024744A8B
:103580000090D0030024F44A0024744CD0E90412C3
:1035900083680B43C16970B513430446056886B060
:1035A000626E0B4328681343A44A666A02401343C1
:1035B000E2682B606B6823F440531343A2696B608D
:1035C0009F4B9D4200F02D82236AA8681A439D4BB1
:1035D00003401A43AA60EB6A23F00F033343EB6204
:1035E000994B9D4228D0994B9D421AD0984B9D42B1
:1035F00017D0984B9D4214D0974B9D4211D0974BBA
:103600009D4219D0964B9D420BD0964B9D4208D0BF
:10361000012000234FF00112C4E91A23236706B0EA
:1036200070BD914B5B6D03F00703052BF0D8DFE80D
:1036300003F0C65F7AAE8D9D8B4B5B6D03F0380354
:10364000282BE5D801A252F823F000BFED3804087A
:10365000113604081136040811360408113604081E
:10366000113604081136040811360408F13604082E
:1036700011360408113604081136040811360408FE
:1036800011360408113604081136040827370408D7
:1036900011360408113604081136040811360408DE
:1036A0001136040811360408113604088F3704084F
:1036B00011360408113604081136040811360408BE
:1036C0001136040811360408113604084D37040871
:1036D000113604081136040811360408113604089E
:1036E0001136040811360408113604086D37040831
:1036F000B1F5004F00F0468103A8FFF713FE049BCD
:10370000002E40F08280626803EB5203B3FBF2F3B9
:103710009BB2A3F110014FF6EF7291423FF678AFE2
:10372000EB60002075E7B1F5004F00F0FD806846C2
:10373000FFF792FE019B002EE5D0013E0A2EE2D853
:103740004A4A52F82620B3FBF2F3DCE7B1F5004F0A
:1037500000F03981002E56D0013E0A2E53D8444A3B
:10376000444B52F82620B3FBF2F3CCE7B1F5004FFF
:1037700000F01781002E43D0013E0A2E40D83E4A69
:103780004FF4004352F82620B3FBF2F3BBE7B1F548
:10379000004F00F02481344B1A6892063FD51A6816
:1037A000364BC2F3C102D340002EACD0013E0A2EEC
:1037B000A9D8334A52F82620B3FBF2F3A3E7B1F5B8
:1037C000004F67D0FFF76EFD274A2E4BD269C2F338
:1037D00002121344626A93F8403003F01F03D8408A
:1037E0003AB1013A0A2A04D8274B53F82230B0FBE9
:1037F000F3F0626800EB5203B3FBF2F39BB288E78D
:103800004FF400437FE71B4B7DE7013E0A2E3FF656
:103810007AAF1E4A52F82620B3FBF2F373E7002E6C
:1038200000F0FD80013E0A2E00F2F980184A134B89
:1038300052F82620B3FBF2F365E700BFF369FFCF30
:10384000000C0058FFF4FF1100100140004400403C
:1038500000480040004C004000500040001401406F
:1038600000780040007C004000440258507D0B0866
:10387000507D0B0800093D00507D0B080090D003DF
:10388000507D0B08007D0B08507D0B08507D0B0808
:10389000507D0B08FFF706FDB34AB44BD269C2F363
:1038A00002121344626A93F8403003F01F03D840B9
:1038B0003AB1013A0A2A04D8AD4B53F82230B0FB92
:1038C000F3F06268530803EB4003B3FBF2F39BB2DF
:1038D000A3F110014FF6EF7291423FF699AE23F03B
:1038E0000F02C3F342031343EB601AE7B1F5004F35
:1038F0002FD0FFF7D7FC9C4A9C4BD269C2F302221F
:103900001344626A93F8403003F01F03D840002A42
:103910003FF46FAF013A0A2A3FF66BAF954B53F86D
:103920002230B0FBF3F064E76846FFF795FD01999C
:103930003EB1013E0A2E04D88F4B53F82630B1FB1E
:10394000F3F16268530803EB4103B3FBF2F39BB25C
:10395000BEE7FFF7A7FC844A844BD269C2F3022278
:103960001344626A93F8403003F01F03D840002AE2
:10397000A7D0013A0A2AA4D8804B53F82230B0FBD2
:10398000F3F09EE703A8FFF7CDFC0499002ED8D0F2
:10399000013E0A2ED5D87A4B53F82630B1FBF3F10D
:1039A000CFE7002E36D0013E0A2E33D8754B53F8A0
:1039B0002630B1FBF3F35B00626803EB5203B3FB09
:1039C000F2F39BB284E746B3013E0A2E25D86E4A35
:1039D0006E4B52F82620B3FBF2F35B00ECE7624B30
:1039E0001A68910640F1C2811B68694AC3F3C1039A
:1039F000DA403EB1013E0A2E04D8664B53F8263019
:103A0000B2FBF3F261684B0803EB4203B3FBF1F343
:103A10009BB25DE74FF48033CEE75F4BCCE75C4B66
:103A200071E6A9685D4B0B4013434F4AAB60EB6AEC
:103A300023F00F033343EB62936D03F00703052B71
:103A40003FF6E6ADDFE803F0D0C1B2776803002EA1
:103A500000F07881013E0A2E00F27481504A4FF442
:103A60000040402352F82620B0FBF2F000283FF43B
:103A700058AE656805EB450282423FF6C9ADB0EB32
:103A8000053F3FF6C5AD202B00F27E81023B1E2B89
:103A90003FF6BEAD01A252F823F000BFF13C04088E
:103AA00011360408CB3C040811360408113604080A
:103AB00011360408A53C0408113604081136040820
:103AC00011360408113604081136040811360408AA
:103AD000113604086B3C040811360408113604083A
:103AE000113604081136040811360408113604088A
:103AF000113604081136040811360408113604087A
:103B00001136040811360408113604081136040869
:103B1000113604081B3C0408002E00F01781013EFA
:103B20000A2E00F213811F4A2023184852F826203B
:103B3000B0FBF2F09AE70C4B1A68950640F1098148
:103B40001B681348C3F3C103D840002E00F0F8806F
:103B5000013E0A2E00F2F480134A102352F8262068
:103B6000B0FBF2F082E700BF00440258007D0B0872
:103B7000507D0B08507D0B08507D0B08507D0B08C5
:103B8000507D0B08507D0B08507D0B0800093D004F
:103B90000090D003507D0B0800127A00FFF4FF1153
:103BA000507D0B08507D0B08507D0B086846FFF7D1
:103BB00053FC01983EB1013E0A2E04D8864B53F8BF
:103BC0002630B0FBF3F0082350E703A8FFF7AAFB69
:103BD00004983EB1013E0A2E04D8804B53F826309B
:103BE000B0FBF3F0042341E7FFF75CFB7C4B7D491E
:103BF0001B6A626AC3F302130B4493F8403003F06C
:103C00001F03D8403AB1013A0A2A04D801EB8201D5
:103C10000B6DB0FBF3F0022328E7616A002900F086
:103C2000CE8001390A2900F2CF806F4B6F4803EB39
:103C3000C103D3E9002300216BF04EFC03460902C7
:103C4000180241EA13616B0818182A464FF0000366
:103C500041F100016BF040FCA0F54072644B9A42C8
:103C60003FF6D6AC634BD8605BE55D4A636A11688A
:103C7000880640F19680126800215F48C2F3C102B5
:103C8000D0404BB1013B0A2B06D85C4A02EBC30380
:103C9000D3E900236BF020FC0902030241EA106122
:103CA0006808D1E76846FFF7D7FB636A01980021EF
:103CB000002BF1D0013B0A2BEED8514A02EBC30393
:103CC000D3E900236BF008FCE6E703A8FFF72AFB23
:103CD000636A04980021002BDED0013B0A2BDBD85D
:103CE000484A02EBC303D3E900236BF0F5FBD3E7AB
:103CF000FFF7D8FA3A4B3B4D00211B6A626AC3F3C7
:103D000002132B4493F8403003F01F03D84042B114
:103D1000013A0A2A05D805EBC205D5E920236BF044
:103D2000DBFB62680902030241EA106150081818BF
:103D30004FF0000341F100016BF0CEFB8CE72E4801
:103D4000102396E64FF40040402392E627482023B4
:103D50008FE6002EF3D0013E0A2EF0D82A4A102317
:103D6000254852F82620B0FBF2F07FE656B1013E1E
:103D70000A2E07D8254A204B52F82620B3FBF2F32F
:103D80005B0019E6224B17E6616AA9B101390A29DD
:103D90001DD8204B4FF4004003EBC103D3E90023AF
:103DA00049E773B1013B0A2B0BD81B4A124802EBBF
:103DB000C303D3E900233EE74FF4000043E717486D
:103DC00041E7174803213EE7144800213BE74FF441
:103DD0000000002137E700BF507D0B08507D0B0825
:103DE00000440258007D0B08807D0B0800093D004F
:103DF000FFFC0F00000C00580090D003807D0B08E2
:103E0000807D0B08807D0B08507D0B08507D0B08D2
:103E10000020A107807D0B08807D0B080000093D74
:103E2000000090D0344A136830B423F08063334CE0
:103E30001360256803E023685B1B022B54D81368CA
:103E40001B01F8D4936A056823F47C3343EA0533F5
:103E500093628368C568013B013D5B022D049BB200
:103E600005F4FE052B434568013DC5F308052B43CA
:103E70000569013D2D0605F0FE452B439363D36A8A
:103E8000456923F0C0032B43D362D36A856923F0CD
:103E900020032B43D362D36A23F01003D362D36B86
:103EA000C0696FF3CF0343EAC003D363D36A43F01F
:103EB0001003D362D36AD1B101290CBF43F480133C
:103EC00043F40013D3620C4A136843F08063136019
:103ED000216803E023685B1A022B05D813681B01D5
:103EE000F8D5002030BC7047032030BC704743F445
:103EF0000023D362E7E700BF00440258E02A002411
:103F0000344A136830B423F08053334C136025686F
:103F100003E023685B1B022B54D813689B00F8D482
:103F2000936A056823F07C7343EA055393628368C0
:103F3000C568013B013D5B022D049BB205F4FE0503
:103F40002B434568013DC5F308052B430569013D39
:103F50002D0605F0FE452B431364D36A456923F40F
:103F600040632B43D362D36A856923F400732B43E8
:103F7000D362D36A23F48073D362536CC0696FF346
:103F8000CF0343EAC0035364D36A43F48073D3621C
:103F9000D36AD1B101290CBF43F4000343F080730D
:103FA000D3620C4A136843F080531360216803E026
:103FB00023685B1A022B05D813689B00F8D50020F4
:103FC00030BC7047032030BC704743F48003D36299
:103FD000E7E700BF00440258E02A00240A4B013BF7
:103FE0000FD00269002AFADA0369074A43F0010395
:103FF0000361013A05D0036913F00103F9D11846B2
:1040000070470320704700BF410D03002DE9F84FB2
:10401000066880460C46C6F3100535BB654B9E42CC
:1040200079D903F500339E4274D903F500339E42DB
:1040300040F2B48003F500339E4240F2B18003F5B4
:1040400000339E4240F2AE8003F500339E4240F2C0
:10405000AB8003F500339E4240F2A880B6F1016FB9
:10406000C0F0A68005200DF013FF534F354697F89A
:10407000C03A012B00F0898006F178464FF0010923
:104080000023B6F5801F87F8C09AC7F8C43A36D324
:10409000022064F0ABFC002874D1484A4FF00209BA
:1040A000D2F80C3143EA0903C2F80C31BFF36F8F29
:1040B000BFF34F8F04F1200254F8043B944245F8BB
:1040C000043BF9D1BFF36F8FBFF34F8F484664F0C5
:1040D0008DFCB9F1010F394A5BD0D2F80C3123F0D5
:1040E0000203C2F80C31002387F8C03A00284CD1F3
:1040F000D8F800302033C8F80030BDE8F88F4846C3
:1041000064F074FC00283DD12C4AD36843F00203CC
:10411000D360CBE70125284F97F8C03A012B0ED08A
:104120004FF0010A4FF0000B504687F8C0AAC7F8BD
:10413000C4BA64F05BFC814628B187F8C0BA4FF07E
:10414000FF30BDE8F88F5046DFF870A0DAF80C3089
:1041500023F4E663CAF80C30DAF80C3043EA05239E
:1041600043F0A403CAF80C3064F040FCDAF80C20E9
:10417000134B1340CAF80C3087F8C09A0028DED1E0
:10418000354679E7002387F8C03A6FF00100BDE8B3
:10419000F88FD36823F00203D360A4E70225BAE7BF
:1041A0000325B8E70425B6E70525B4E70625B2E7F9
:1041B0000725B0E7FFFF0108E02A00240020005295
:1041C000FBF8FFFF0148FCF711B900BFAC35002434
:1041D000084810B4D0F8CC3AD0F8004B99691A6866
:1041E0002CB1234600F6CC205DF8044B18475DF84F
:1041F000044B7047E02A00240148FCF7F7B800BFE1
:10420000FC350024084810B4D0F81C3BD0F8504BC3
:1042100099691A682CB1234600F61C305DF8044BEE
:1042200018475DF8044B7047E02A00240148FCF76A
:10423000DDB800BF4C360024084810B4D0F86C3B01
:10424000D0F8A04B99691A682CB1234600F66C305F
:104250005DF8044B18475DF8044B7047E02A0024D2
:104260002DE9F04FDFF8689300EB400583B0430081
:1042700009EB85050093D5F89C310193002B00F0E4
:1042800066818046B5F8A20164F0CAF995F8A001EC
:104290000BF062F8044695F8A1010BF05DF808F107
:1042A00001030746DBB2002C00F0768140F60C12C9
:1042B000A1882372E2802268002800F061810372E5
:1042C00040F60C23C38091613B68BA889A61112142
:1042D000204609260AF0FCFF112138460AF0F8FFB3
:1042E0006525002C00F036812268A38811690B42F5
:1042F00000F030811B0493610DF0E4F905468B4614
:104300000DF0E0F9401B61EB0B01052871F1000194
:10431000F6D314B12368A2889A610DF0D3F905464B
:104320008B460DF0CFF9401B61EB0B01052871F1B5
:104330000001F6D3013ED3D11CB1A38822681B042F
:1043400093610DF0BFF905460E460DF0BBF9401B19
:1043500061EB0601052871F10001F6D31FB1BB889E
:104360003A681B0493610DF0ADF905460E460DF059
:10437000A9F9401B61EB0601052871F10001F6D394
:1043800014B12368A2889A610DF09CF905460E4687
:104390000DF098F9401B61EB0601052871F1000151
:1043A000F6D317B13B68BA889A61009B20463E213C
:1043B0004FEA8805434409EB830393F8A74122465B
:1043C0000AF0A8FF224638463E210AF0A3FF7B4CA4
:1043D00008EB8803019A04EB0313C3F8CC2A784B4B
:1043E0009A4200F0C880FEF75DFF764BDA69C2F3AF
:1043F0000212754B134493F8403003F01F03D8406A
:10440000009B434409EB830393F8A431022B00F093
:10441000BE80032B00F0B680012B14BF4FF4C8718F
:104420004FF4487164F080F9034605EB080200215F
:1044300004EB0212C2F8D41AC2F8DC1AC2F8E01A6D
:10444000C2F8E81AC2F8EC1A0121C2F8D03AC2F850
:10445000D81A92F80D1B01F0FF00002900F0A4808B
:1044600005EB080123F0706224274FF4004C04EBA5
:1044700001115648D1F8CC3A81F80D7B1E6826F020
:1044800001061E601A619A6822F400429A60C3F81D
:1044900008C05A681043D1F8E42A58601202D8685C
:1044A00020F40040D860DA6000221A60186840F0FA
:1044B000010018602020C1F8102B81F80D0BC1F805
:1044C000FC2A81F80E2B91F80D0B2028C6B217D1CB
:1044D00091F80C0B012813D081F80D7B186820F09F
:1044E00001001860186820F480501860186818607F
:1044F000186840F00100186081F80D6B81F80C2BF2
:10450000009B0221DFF8CCA04544434404EB051492
:1045100009EB830999F8A671384664F0C3FA99F853
:10452000A56107F01F034FF001097F09304609FA22
:1045300003F302214AF8273064F0B4FA06F01F03AF
:10454000760909FA03F34AF8263084F8C89A03B0CA
:10455000BDE8F08F013D2AD00DF0B4F883468A46BD
:104560000DF0B0F8B0EB0B0061EB0A01052871F11A
:104570000001F5D3B5E6FEF795FE124B1A6A36E751
:104580009161A4E6C82164F0CFF803464DE76421A9
:1045900064F0CAF8034648E700283FF498AE037277
:1045A00040F60C23C3808FE682F80C0B58E7002CF2
:1045B0003FF4A2AEA38822689CE600BFE02A002454
:1045C000001C005800440258007D0B0800800002C7
:1045D0000000002400E100E02DE9F04F441C83B00E
:1045E00091469DF8342031D000EB800CC04D06463A
:1045F000870005EB0C104FEA0C1C90F8C8AABAF122
:10460000000F23D0AC44B9F1FF0F9E464FEA41089A
:104610000CF6CC2400D0FBB9002A40F0B180BA19C6
:1046200005EB021292F80D1B202906D1BEF1000FF6
:1046300016D14FF40073C2F8103BB5F8B83B3046C2
:1046400001339BB2A5F8B83BFFF70AFE4FF0000A12
:10465000504603B0BDE8F08F90F80D2B202AECD126
:10466000BA1905EB021292F80C1B0129E5D00121C1
:10467000D5F800B082F80C1BD2F8CC1A05E02A68F5
:10468000A2EB0B02192A00F2ED80886910F40040B9
:10469000F5D1BA194FF0210C0C9B05EB021282F8F0
:1046A0000DCB4FF0400CC2F8F03A82F80ECBC2F8B6
:1046B000000BC2F8100B8F48A2F8F6EA4B68019283
:1046C00003408D4843EA0803184348605946204692
:1046D00064F062F9002840F06F81019AD2F8CC1A98
:1046E000C1F8289005E02B68A3EB0B030A2B00F21E
:1046F00056818A6912F08002F5D0BA1905EB0212D0
:10470000B2F8F63A9BB2FF2B40F26E814B687B48C1
:1047100003407B4843EA08031843FF23A2F8F43A16
:10472000486007EB060905EB091905E0B9F8F63A08
:104730009BB2002B00F009815946204664F02CF909
:1047400000287FF47AAFD9F8F03AD9F8CC2A13F8D8
:10475000010BB9F8F41A9062C9F8F03A0139B9F8C6
:10476000F63A89B2013BA9F8F41A9BB2A9F8F63AD5
:10477000B9F8F63A9BB20029D8D1002BD6D0A1E0E7
:10478000BA1905EB021292F80D1B20297FF455AFE0
:1047900092F80C1B01293FF450AF0121D5F800B06D
:1047A00082F80C1BD2F8CC1A05E02A68A2EB0B02A7
:1047B000192A00F208818A6912F40042F5D1B81969
:1047C0004FF0210C0C9B05EB001080F80DCB4FF047
:1047D000100CC0F8F03A80F80ECBC0F8102BA0F8FF
:1047E000F6EAB0F8F63AC0F8002B9BB2FF2B40F285
:1047F0000B814B683F4A1340424A43EA08031A437D
:10480000FF23A0F8F43A4A6007EB060905EB091903
:10481000B9F8F63A594620469BB2002B00F0978033
:1048200064F0BAF800287FF408AFD9F8F03AD9F864
:10483000CC2A13F8010BB9F8F41A9062C9F8F03ACF
:104840000139B9F8F63A89B2013BA9F8F41A9BB2DA
:10485000A9F8F63AB9F8F63A9BB2002BD8D000295D
:10486000D6D115E037442021002205EB0717D7F8F1
:10487000103B87F80C2B0B43C7F8103B87F80D1B38
:1048800087F80E2BD9E62B68A3EB0B030A2B3BD83A
:10489000916911F08001F6D0B9F8F63A9BB2FF2B7E
:1048A0006DD9536815490B40154943EA080319436C
:1048B000FF23A9F8F43A5160AAE72B68A3EB0B0396
:1048C0000A2B21D8916911F08001F6D0B9F8F63A97
:1048D0009BB2FF2B29D9536808490B40084943EA8A
:1048E00008031943FF23A9F8F43A51601EE700BFFB
:1048F000E02A0024009800FC00200181009C00FCBC
:104900000000FF010020FF81374405EB0717D7F8AF
:10491000103B87F80C1B43F02003C7F8103B202303
:1049200087F80D3B87F80E1B87E6B9F8F63A3E4844
:104930009BB25168A9F8F43ADBB2014048EA03435C
:104940000B4343F000735360F0E65946204663F092
:10495000F9FF00287FF471AED9F8CC3A2021334C0E
:104960003744D9615A6822405A60002205EB071388
:1049700089F80D1B89F80E0B83F80C2B68E6B9F843
:10498000F63A29489BB25168A9F8F43ADBB20140E3
:1049900048EA03430B4343F00073536038E7BB1905
:1049A000202005EB0313D3F8101B0143C3F8101BA1
:1049B00083F80D0B83F80E2BBB19002205EB0313B4
:1049C00083F80C2B39E6BB192020002105EB0313DB
:1049D000D3F8102B83F80C1B0243C3F8102B83F879
:1049E0000D0B83F80E1B28E6B2F8F63A0E489BB280
:1049F000A2F8F43ADBB24A6848EA034302401343A0
:104A000043F000734B608CE6B0F8F63A4A689BB20C
:104A1000A0F8F43ADBB2064848EA034302401343E5
:104A2000044A1A434A60EFE6009C00FC00E800FEDE
:104A3000009800FC002000822DE9F04F451C83B057
:104A400014469DF8342000F08B800646DFF8C0A3A2
:104A500000EB8000B7000AEB001C00019CF8C89A2C
:104A6000B9F1000F7CD05044FF2C9E464FEA41081C
:104A700000F6CC257AD1002A78D09CF80D2B202A7C
:104A800065D19CF80C2B012A61D00122DCF8CC1AEC
:104A9000DAF800408CF80C2B05E0DAF80020121B45
:104AA000192A00F21D818A6912F40042F5D1B81961
:104AB0004FF0220C0C9B0AEB001080F80DCB4FF04E
:104AC000100CC0F8F03A80F80ECBC0F8102BA0F80C
:104AD000F6EAB0F8F63AC0F8002B9BB2FF2B00F2D2
:104AE0001581B0F8F63A4A689BB2A0F8F43ADBB206
:104AF000C14848EA034302401343C04A1A434A608C
:104B000007EB060B0AEB0B1BBBF8F63A9BB2002B2C
:104B100000F0CE81DBF8CC2A0CE0DBF8CC2A9169DE
:104B200011F0200140F04D81DAF800301B1B0A2BF8
:104B300000F270819369214628465B0700F10681E7
:104B40009369DB06EBD563F0BFFE0028E5D0BAF829
:104B5000B83B304601339BB2AAF8B83BFFF780FB65
:104B60004FF00009484603B0BDE8F08FBA190AEBD0
:104B7000021292F80D1B2029E9D10C99002900F0AE
:104B8000C08092F80C1B0129E1D00121DAF800B0B5
:104B900082F80C1BD2F8CC1A06E0DAF80020A2EB5F
:104BA0000B02192A00F29C80886910F40040F4D1AD
:104BB000BA194FF0220C0C9B0AEB021282F80DCBB3
:104BC0004FF0400CC2F8F03A82F80ECBC2F8000B5E
:104BD000C2F8100B8848A2F8F6EA4B68019203402D
:104BE00000F1044043EA080300F508401843486018
:104BF0005946284663F0D0FE002840F0A080019A74
:104C0000D2F8CC1A8C6206E0DAF80030A3EB0B0382
:104C10000A2B00F287808A6912F04002F4D0BA1998
:104C20000AEB0212B2F8F63A9BB2FF2B40F2648113
:104C30004B6871480340724843EA08031843FF2356
:104C4000A2F8F43A4860BC190AEB0414D4F8CC1A60
:104C500006E0DAF80030A3EB0B030A2B00F2E98040
:104C60008A6912F00402F4D04A6AD4F8F03A1A7051
:104C7000B4F8F63AB4F8F42A013B013A9BB292B286
:104C8000A4F8F63AD4F8F03AA4F8F42A0133C4F8B8
:104C9000F03AB4F8F63A9BB213B1002A00F0EA8079
:104CA000B4F8F63A9BB2002BD0D15946284663F0AF
:104CB00049FE034600287FF44AAFD4F8CC2A2020CE
:104CC000504DD06151682940516084F80D0B84F833
:104CD0000E3B374400230AEB071A8AF80C3B41E7E6
:104CE000BB19202000210AEB0313D3F8102B83F803
:104CF0000C1B0243C3F8102B83F80D0B83F80E1B1B
:104D000025E74FF40073C2F8103B20E74B683A4A9E
:104D100013403B4A43EA08031A43FF23A0F8F43A3E
:104D20004A60EDE6BB1920200AEB0313D3F8101BF1
:104D30000143C3F8101B83F80D0B83F80E2BBB192E
:104D400000220AEB031383F80C2B00E7526ADBF80E
:104D5000F03A1A70BBF8F63ADBF8F02A013B013260
:104D60009BB2CBF8F02AABF8F63ABBF8F43ABBF8B2
:104D7000F62A013B92B29BB2ABF8F43A002A3FF418
:104D8000C3AE002B7FF4C0AEDBF8CC1A04E0DAF837
:104D900000301B1B0A2B4CD88A6912F08002F6D017
:104DA000BBF8F63A9BB2FF2B54D94B68164A134016
:104DB000164A43EA08031A43FF23ABF8F43A4A6061
:104DC000A2E69369590703D5BBF8F43A002BBDD18D
:104DD00020200C4CBB19D06151680AEB0313214011
:104DE00051600022C3F8102B83F80C2B83F80D0BB5
:104DF00083F80E2BABE600BF009800FC0024008275
:104E00000024FF8100E800FE009C00FC0000FF0180
:104E1000E02A002437440AEB0717D7F8103B87F83D
:104E20000C1B43F02003C7F8103B202387F80D3BF1
:104E30008DE6BB190AEB0313D3F8101B83F80C2B78
:104E400041F02001C3F8101B202183F80D1B83F8CB
:104E50000E2B7CE6BBF8F63A2F489BB24A68ABF8BB
:104E6000F43ADBB2024048EA0343134343F00073D1
:104E70004B6049E6D4F8CC1A05E0DAF80030A3EB31
:104E80000B030A2BD5D88A6912F08002F5D0B4F84A
:104E9000F63A9BB2FF2B1FD94B681F4A13401F4A9B
:104EA00043EA08031A43FF23A4F8F43A4A60F7E6FA
:104EB0002146284663F046FD00287FF448AEDBF823
:104EC000CC3A2021164CD9615A6822405A608BF89E
:104ED0000D1B8BF80E0BFCE6B4F8F63A0E489BB2AD
:104EE0004A68A4F8F43ADBB2024048EA03431343A9
:104EF00043F000734B60D3E6B2F8F63A09489BB230
:104F0000A2F8F43ADBB24A6848EA0343024013438A
:104F1000054A1A434A6096E6009C00FC0000FF0127
:104F200000E800FE009800FC002400820348D0F84E
:104F3000CC3113B100F5E070184770470000002431
:104F40000348D0F8EC3113B100F5F0701847704702
:104F5000000000240348D0F80C3213B100F50070B3
:104F600018477047000000240348D0F82C3213B1D2
:104F700000F5087018477047000000240348D0F877
:104F80004C3213B100F51070184770470000002430
:104F90000348D0F86C3213B100F518701847704709
:104FA000000000240348D0F88C3213B100F52070C3
:104FB00018477047000000240348D0F8AC3213B102
:104FC00000F5287018477047000000240348D0F807
:104FD000CC3213B100F53070184770470000002440
:104FE0000348D0F8EC3213B100F538701847704719
:104FF000000000240348D0F80C3313B100F54070D2
:1050000018477047000000240348D0F82C3313B130
:1050100000F5487018477047000000240348D0F896
:105020004C3313B100F5507018477047000000244E
:105030000348D0F86C3313B100F558701847704727
:10504000000000240348D0F88C3313B100F56070E1
:1050500018477047000000240348D0F8AC3313B160
:1050600000F56870184770470000002410B41C4613
:10507000436884466FF30F0323434360036843F0A0
:1050800001030360036843F400730360002C3AD00B
:1050900040F2E930DCF814309B0748D5002A49D0AB
:1050A00012F8013B40F2E9308CF82030DCF8143083
:1050B000DB0720D40138F9D1214B9C450CD0A3F556
:1050C00078439C4538D003F580639C4536D003F582
:1050D00078439C450BD103201A4A00EB400002EBB9
:1050E000C002B2F8D43301339BB2A2F8D43300200B
:1050F0005DF8044B70479CF83000C0B209B101F86C
:10510000010B013CC4D1DCF814301B07FBD5DCF8E3
:10511000183001205DF8044B43F01003CCF8183030
:10512000DCF8003023F00103CCF800307047013880
:10513000B0D1C1E7FF23B5E70120CDE70220CBE7DF
:1051400000300140000000242DE9F84300242C4EDB
:105150008046036856F83450AB4209D001340E2C17
:10516000F8D1284A0021052004F0A6FC002019E00F
:10517000254B03EB8409D9F8BC7BAFB198F8051037
:1051800000204B1C01EB410203EB430307EBC2027F
:10519000DB00C2F80C80C2E90400F854182303FBBA
:1051A00001700830BDE8F8830721682004F0F8FC9E
:1051B0000146C9F8BC0BE8B13946682271F046FCDB
:1051C000D9F8BC1B06EBC4043B4689600C6009623D
:1051D0008963096556F83320954205D001330E2BBB
:1051E000F8D14F600F46C9E7084F07EB83174F60B0
:1051F0000F46C3E7064A052004F05EFCB6E700BF91
:10520000D87D0B08E42A0C08E02A0024D4360024B8
:105210000C2B0C08F0B44468A37913F0020266D09A
:1052200002224FF0080C036864795B689D482044B3
:1052300093F83C40012C90F8480156D0012483F8A3
:105240003C40022483F83D40142848D8DFE810F0A1
:105250008600470047004700C1004700470047005D
:105260003601470047004700F60047004700470067
:105270001500470047004700510018688A4E046A2D
:10528000B04224F480340462046A456824F4003493
:1052900044EA0242446D24F0700444F060040ED0ED
:1052A00006F58066B0420AD0804F06F58046B042CF
:1052B00018BFB84203D006F58066B04201D145F46C
:1052C00080354560446581650262426D42F00802A6
:1052D0004265426D22F004024265426D4265012141
:1052E000002283F83D1083F83C20F0BC70479446C0
:1052F00099E718686C4E046AB04224F48014046282
:10530000046A456824F4001444EA0252446D24F40B
:10531000E04444F4C0440ED006F58066B0420AD0A2
:10532000624F06F58046B04218BFB84203D006F57A
:105330008066B04203D125F4003545F480254560F0
:105340004465C1650262426D42F400624265426D8D
:1053500022F480624265426D4265C0E71868544D90
:10536000046A514E24F00104B0420462046A24F03D
:10537000020442EA04024468876905EA070545F029
:1053800060050FD006F58066B0420BD006F570566A
:10539000B04207D006F58066B04203D006F58066BD
:1053A000B04207D122F0080244F440744CEA0202F1
:1053B00022F004024460856141630262826942F026
:1053C00008028261826922F004028261826982613C
:1053D00085E71868374D046A334E24F01004B04254
:1053E0000462046A24F0200444EA021244688769D3
:1053F00005EA070545F4C04500F0998006F580668A
:10540000B04200F09480294F2B4EB04218BFB842F2
:1054100003D006F58066B04201D144F44064446094
:10542000856181630262826942F4006282618269FD
:1054300022F4806282618269826150E718681A4EA4
:10544000046AB04224F480540462046A456824F477
:10545000005444EA0232C46924F4E64444F4C044EB
:105460000ED006F58066B0420AD0104F06F5804691
:10547000B04218BFB84203D006F58066B04201D1F1
:1054800045F480454560C46101640262C26942F42A
:105490000062C261C26922F48062C261C269C261F3
:1054A0001DE700BF007D0B080000014000400140E7
:1054B0008CFFFEFFFF8CFFFE0044014018681F4D6B
:1054C000046AA84224F480740462046A466824F4DE
:1054D000007444EA0222C46924F0730444F06004B6
:1054E0001ED005F58065A8421AD0154F154DA8426B
:1054F00018BFB84203D005F58065A84201D146F433
:1055000040564660C461C1630262C26942F008024B
:10551000C261C26922F00402C261C269C261DEE6F0
:1055200022F4006242EA0C2222F48062E7E722F0D1
:10553000800242EA0C1222F040026EE700000140B5
:10554000004001400044014042685379032B0FD8CA
:10555000DFE803F00B080502106840307047106860
:105560003C307047106838307047106834307047EE
:1055700000207047D0E90002064B517992790B4424
:10558000406893F84811530701D568F015B968F0E1
:1055900035B900BF007D0B08F0B54468374A24696F
:1055A000C368C4F303245B6852F82460EFF31184EA
:1055B000102585F312884568314F95F805E0D0F83D
:1055C0000CC002EB4E02D5F800E0158CDEF80C2082
:1055D00005F4F05522EA0502CEF80C2017F806E093
:1055E000DCF8102053F80E501F2A25F0010543F86F
:1055F0000E5039D9203A2025DCF804C005FA02F211
:10560000CCF80C20E2B282F31188BA5DDFF874C0E6
:1056100003EB020E46684569DEF8044004EA0C0C10
:105620004CEA0101CEF804107179032924D8DFE88F
:1056300001F01815120231684031CEF80C500124E7
:10564000CEF80810995841F010019950995821430B
:1056500099500474F0BD31683C31EEE7316838315F
:10566000EBE731683431E8E72025DCF804C005FABF
:1056700002F2CCF80820C5E70021DEE7007D0B0828
